{
  "_format": "hh-sol-artifact-1",
  "contractName": "SimpleSwap",
  "sourceName": "contracts/SimpleSwap.sol",
  "abi": [
    {
      "inputs": [
        {
          "internalType": "address",
          "name": "_tokenA_address",
          "type": "address"
        },
        {
          "internalType": "address",
          "name": "_tokenB_address",
          "type": "address"
        }
      ],
      "stateMutability": "nonpayable",
      "type": "constructor"
    },
    {
      "inputs": [
        {
          "internalType": "address",
          "name": "spender",
          "type": "address"
        },
        {
          "internalType": "uint256",
          "name": "allowance",
          "type": "uint256"
        },
        {
          "internalType": "uint256",
          "name": "needed",
          "type": "uint256"
        }
      ],
      "name": "ERC20InsufficientAllowance",
      "type": "error"
    },
    {
      "inputs": [
        {
          "internalType": "address",
          "name": "sender",
          "type": "address"
        },
        {
          "internalType": "uint256",
          "name": "balance",
          "type": "uint256"
        },
        {
          "internalType": "uint256",
          "name": "needed",
          "type": "uint256"
        }
      ],
      "name": "ERC20InsufficientBalance",
      "type": "error"
    },
    {
      "inputs": [
        {
          "internalType": "address",
          "name": "approver",
          "type": "address"
        }
      ],
      "name": "ERC20InvalidApprover",
      "type": "error"
    },
    {
      "inputs": [
        {
          "internalType": "address",
          "name": "receiver",
          "type": "address"
        }
      ],
      "name": "ERC20InvalidReceiver",
      "type": "error"
    },
    {
      "inputs": [
        {
          "internalType": "address",
          "name": "sender",
          "type": "address"
        }
      ],
      "name": "ERC20InvalidSender",
      "type": "error"
    },
    {
      "inputs": [
        {
          "internalType": "address",
          "name": "spender",
          "type": "address"
        }
      ],
      "name": "ERC20InvalidSpender",
      "type": "error"
    },
    {
      "anonymous": false,
      "inputs": [
        {
          "indexed": true,
          "internalType": "address",
          "name": "owner",
          "type": "address"
        },
        {
          "indexed": true,
          "internalType": "address",
          "name": "spender",
          "type": "address"
        },
        {
          "indexed": false,
          "internalType": "uint256",
          "name": "value",
          "type": "uint256"
        }
      ],
      "name": "Approval",
      "type": "event"
    },
    {
      "anonymous": false,
      "inputs": [
        {
          "indexed": true,
          "internalType": "address",
          "name": "from",
          "type": "address"
        },
        {
          "indexed": true,
          "internalType": "address",
          "name": "to",
          "type": "address"
        },
        {
          "indexed": false,
          "internalType": "uint256",
          "name": "value",
          "type": "uint256"
        }
      ],
      "name": "Transfer",
      "type": "event"
    },
    {
      "inputs": [
        {
          "internalType": "address",
          "name": "_tokenA",
          "type": "address"
        },
        {
          "internalType": "address",
          "name": "_tokenB",
          "type": "address"
        },
        {
          "internalType": "uint256",
          "name": "amountADesired",
          "type": "uint256"
        },
        {
          "internalType": "uint256",
          "name": "amountBDesired",
          "type": "uint256"
        },
        {
          "internalType": "uint256",
          "name": "amountAMin",
          "type": "uint256"
        },
        {
          "internalType": "uint256",
          "name": "amountBMin",
          "type": "uint256"
        },
        {
          "internalType": "address",
          "name": "to",
          "type": "address"
        },
        {
          "internalType": "uint256",
          "name": "deadline",
          "type": "uint256"
        }
      ],
      "name": "addLiquidity",
      "outputs": [
        {
          "internalType": "uint256",
          "name": "amountA",
          "type": "uint256"
        },
        {
          "internalType": "uint256",
          "name": "amountB",
          "type": "uint256"
        },
        {
          "internalType": "uint256",
          "name": "liquidity",
          "type": "uint256"
        }
      ],
      "stateMutability": "nonpayable",
      "type": "function"
    },
    {
      "inputs": [
        {
          "internalType": "address",
          "name": "owner",
          "type": "address"
        },
        {
          "internalType": "address",
          "name": "spender",
          "type": "address"
        }
      ],
      "name": "allowance",
      "outputs": [
        {
          "internalType": "uint256",
          "name": "",
          "type": "uint256"
        }
      ],
      "stateMutability": "view",
      "type": "function"
    },
    {
      "inputs": [
        {
          "internalType": "address",
          "name": "spender",
          "type": "address"
        },
        {
          "internalType": "uint256",
          "name": "value",
          "type": "uint256"
        }
      ],
      "name": "approve",
      "outputs": [
        {
          "internalType": "bool",
          "name": "",
          "type": "bool"
        }
      ],
      "stateMutability": "nonpayable",
      "type": "function"
    },
    {
      "inputs": [
        {
          "internalType": "address",
          "name": "account",
          "type": "address"
        }
      ],
      "name": "balanceOf",
      "outputs": [
        {
          "internalType": "uint256",
          "name": "",
          "type": "uint256"
        }
      ],
      "stateMutability": "view",
      "type": "function"
    },
    {
      "inputs": [],
      "name": "decimals",
      "outputs": [
        {
          "internalType": "uint8",
          "name": "",
          "type": "uint8"
        }
      ],
      "stateMutability": "view",
      "type": "function"
    },
    {
      "inputs": [
        {
          "internalType": "uint256",
          "name": "amountIn",
          "type": "uint256"
        },
        {
          "internalType": "uint256",
          "name": "_reserveIn",
          "type": "uint256"
        },
        {
          "internalType": "uint256",
          "name": "_reserveOut",
          "type": "uint256"
        }
      ],
      "name": "getAmountOut",
      "outputs": [
        {
          "internalType": "uint256",
          "name": "amountOut",
          "type": "uint256"
        }
      ],
      "stateMutability": "pure",
      "type": "function"
    },
    {
      "inputs": [
        {
          "internalType": "address",
          "name": "_tokenA",
          "type": "address"
        },
        {
          "internalType": "address",
          "name": "_tokenB",
          "type": "address"
        }
      ],
      "name": "getPrice",
      "outputs": [
        {
          "internalType": "uint256",
          "name": "price",
          "type": "uint256"
        }
      ],
      "stateMutability": "view",
      "type": "function"
    },
    {
      "inputs": [
        {
          "internalType": "address",
          "name": "_tokenA",
          "type": "address"
        },
        {
          "internalType": "address",
          "name": "_tokenB",
          "type": "address"
        }
      ],
      "name": "getReserves",
      "outputs": [
        {
          "internalType": "uint256",
          "name": "_reserveA",
          "type": "uint256"
        },
        {
          "internalType": "uint256",
          "name": "_reserveB",
          "type": "uint256"
        }
      ],
      "stateMutability": "view",
      "type": "function"
    },
    {
      "inputs": [],
      "name": "name",
      "outputs": [
        {
          "internalType": "string",
          "name": "",
          "type": "string"
        }
      ],
      "stateMutability": "view",
      "type": "function"
    },
    {
      "inputs": [
        {
          "internalType": "address",
          "name": "_tokenA",
          "type": "address"
        },
        {
          "internalType": "address",
          "name": "_tokenB",
          "type": "address"
        },
        {
          "internalType": "uint256",
          "name": "_liquidity",
          "type": "uint256"
        },
        {
          "internalType": "uint256",
          "name": "amountAMin",
          "type": "uint256"
        },
        {
          "internalType": "uint256",
          "name": "amountBMin",
          "type": "uint256"
        },
        {
          "internalType": "address",
          "name": "to",
          "type": "address"
        },
        {
          "internalType": "uint256",
          "name": "deadline",
          "type": "uint256"
        }
      ],
      "name": "removeLiquidity",
      "outputs": [
        {
          "internalType": "uint256",
          "name": "amountA",
          "type": "uint256"
        },
        {
          "internalType": "uint256",
          "name": "amountB",
          "type": "uint256"
        }
      ],
      "stateMutability": "nonpayable",
      "type": "function"
    },
    {
      "inputs": [
        {
          "internalType": "uint256",
          "name": "amountIn",
          "type": "uint256"
        },
        {
          "internalType": "uint256",
          "name": "amountOutMin",
          "type": "uint256"
        },
        {
          "internalType": "address[]",
          "name": "path",
          "type": "address[]"
        },
        {
          "internalType": "address",
          "name": "to",
          "type": "address"
        },
        {
          "internalType": "uint256",
          "name": "deadline",
          "type": "uint256"
        }
      ],
      "name": "swapExactTokensForTokens",
      "outputs": [],
      "stateMutability": "nonpayable",
      "type": "function"
    },
    {
      "inputs": [],
      "name": "symbol",
      "outputs": [
        {
          "internalType": "string",
          "name": "",
          "type": "string"
        }
      ],
      "stateMutability": "view",
      "type": "function"
    },
    {
      "inputs": [],
      "name": "tokenA",
      "outputs": [
        {
          "internalType": "contract IERC20",
          "name": "",
          "type": "address"
        }
      ],
      "stateMutability": "view",
      "type": "function"
    },
    {
      "inputs": [],
      "name": "tokenB",
      "outputs": [
        {
          "internalType": "contract IERC20",
          "name": "",
          "type": "address"
        }
      ],
      "stateMutability": "view",
      "type": "function"
    },
    {
      "inputs": [],
      "name": "totalSupply",
      "outputs": [
        {
          "internalType": "uint256",
          "name": "",
          "type": "uint256"
        }
      ],
      "stateMutability": "view",
      "type": "function"
    },
    {
      "inputs": [
        {
          "internalType": "address",
          "name": "to",
          "type": "address"
        },
        {
          "internalType": "uint256",
          "name": "value",
          "type": "uint256"
        }
      ],
      "name": "transfer",
      "outputs": [
        {
          "internalType": "bool",
          "name": "",
          "type": "bool"
        }
      ],
      "stateMutability": "nonpayable",
      "type": "function"
    },
    {
      "inputs": [
        {
          "internalType": "address",
          "name": "from",
          "type": "address"
        },
        {
          "internalType": "address",
          "name": "to",
          "type": "address"
        },
        {
          "internalType": "uint256",
          "name": "value",
          "type": "uint256"
        }
      ],
      "name": "transferFrom",
      "outputs": [
        {
          "internalType": "bool",
          "name": "",
          "type": "bool"
        }
      ],
      "stateMutability": "nonpayable",
      "type": "function"
    }
  ],
  "bytecode": "0x60c06040523480156200001157600080fd5b5060405162003a2838038062003a288339818101604052810190620000379190620002c1565b6040518060400160405280601381526020017f53696d706c6553776170204c5020546f6b656e000000000000000000000000008152506040518060400160405280600381526020017f534c5000000000000000000000000000000000000000000000000000000000008152508160039081620000b4919062000582565b508060049081620000c6919062000582565b505050600073ffffffffffffffffffffffffffffffffffffffff168273ffffffffffffffffffffffffffffffffffffffff1614158015620001345750600073ffffffffffffffffffffffffffffffffffffffff168173ffffffffffffffffffffffffffffffffffffffff1614155b62000176576040517f08c379a00000000000000000000000000000000000000000000000000000000081526004016200016d90620006ca565b60405180910390fd5b8073ffffffffffffffffffffffffffffffffffffffff168273ffffffffffffffffffffffffffffffffffffffff1603620001e7576040517f08c379a0000000000000000000000000000000000000000000000000000000008152600401620001de906200073c565b60405180910390fd5b8173ffffffffffffffffffffffffffffffffffffffff1660808173ffffffffffffffffffffffffffffffffffffffff16815250508073ffffffffffffffffffffffffffffffffffffffff1660a08173ffffffffffffffffffffffffffffffffffffffff168152505050506200075e565b600080fd5b600073ffffffffffffffffffffffffffffffffffffffff82169050919050565b600062000289826200025c565b9050919050565b6200029b816200027c565b8114620002a757600080fd5b50565b600081519050620002bb8162000290565b92915050565b60008060408385031215620002db57620002da62000257565b5b6000620002eb85828601620002aa565b9250506020620002fe85828601620002aa565b9150509250929050565b600081519050919050565b7f4e487b7100000000000000000000000000000000000000000000000000000000600052604160045260246000fd5b7f4e487b7100000000000000000000000000000000000000000000000000000000600052602260045260246000fd5b600060028204905060018216806200038a57607f821691505b602082108103620003a0576200039f62000342565b5b50919050565b60008190508160005260206000209050919050565b60006020601f8301049050919050565b600082821b905092915050565b6000600883026200040a7fffffffffffffffffffffffffffffffffffffffffffffffffffffffffffffffff82620003cb565b620004168683620003cb565b95508019841693508086168417925050509392505050565b6000819050919050565b6000819050919050565b6000620004636200045d62000457846200042e565b62000438565b6200042e565b9050919050565b6000819050919050565b6200047f8362000442565b620004976200048e826200046a565b848454620003d8565b825550505050565b600090565b620004ae6200049f565b620004bb81848462000474565b505050565b5b81811015620004e357620004d7600082620004a4565b600181019050620004c1565b5050565b601f8211156200053257620004fc81620003a6565b6200050784620003bb565b8101602085101562000517578190505b6200052f6200052685620003bb565b830182620004c0565b50505b505050565b600082821c905092915050565b6000620005576000198460080262000537565b1980831691505092915050565b600062000572838362000544565b9150826002028217905092915050565b6200058d8262000308565b67ffffffffffffffff811115620005a957620005a862000313565b5b620005b5825462000371565b620005c2828285620004e7565b600060209050601f831160018114620005fa5760008415620005e5578287015190505b620005f1858262000564565b86555062000661565b601f1984166200060a86620003a6565b60005b8281101562000634578489015182556001820191506020850194506020810190506200060d565b8683101562000654578489015162000650601f89168262000544565b8355505b6001600288020188555050505b505050505050565b600082825260208201905092915050565b7f5a45524f5f414444524553530000000000000000000000000000000000000000600082015250565b6000620006b2600c8362000669565b9150620006bf826200067a565b602082019050919050565b60006020820190508181036000830152620006e581620006a3565b9050919050565b7f4944454e544943414c5f41444452455353455300000000000000000000000000600082015250565b60006200072460138362000669565b91506200073182620006ec565b602082019050919050565b60006020820190508181036000830152620007578162000715565b9050919050565b60805160a051613203620008256000396000818161072e0152818161086201528181610c0301528181610cae01528181610e2701528181610fd10152818161121e0152818161135a0152818161145f01528181611625015281816118750152611a86015260008181610539015281816106b1015281816107e50152818161091c01528181610b6901528181610dd101528181610f7b0152818161117f015281816112c001528181611409015281816115cf015281816117d401526119ec01526132036000f3fe608060405234801561001057600080fd5b506004361061010b5760003560e01c80635f64b55b116100a2578063ac41865a11610071578063ac41865a146102d0578063baa2abde14610300578063d52bb6f414610331578063dd62ed3e14610362578063e8e33700146103925761010b565b80635f64b55b1461023457806370a082311461025257806395d89b4114610282578063a9059cbb146102a05761010b565b806318160ddd116100de57806318160ddd146101ac57806323b872dd146101ca578063313ce567146101fa57806338ed1739146102185761010b565b8063054d50d41461011057806306fdde0314610140578063095ea7b31461015e5780630fc63d101461018e575b600080fd5b61012a60048036038101906101259190612336565b6103c4565b6040516101379190612398565b60405180910390f35b610148610482565b6040516101559190612443565b60405180910390f35b610178600480360381019061017391906124c3565b610514565b604051610185919061251e565b60405180910390f35b610196610537565b6040516101a39190612598565b60405180910390f35b6101b461055b565b6040516101c19190612398565b60405180910390f35b6101e460048036038101906101df91906125b3565b610565565b6040516101f1919061251e565b60405180910390f35b610202610594565b60405161020f9190612622565b60405180910390f35b610232600480360381019061022d91906126a2565b61059d565b005b61023c610cac565b6040516102499190612598565b60405180910390f35b61026c6004803603810190610267919061273c565b610cd0565b6040516102799190612398565b60405180910390f35b61028a610d18565b6040516102979190612443565b60405180910390f35b6102ba60048036038101906102b591906124c3565b610daa565b6040516102c7919061251e565b60405180910390f35b6102ea60048036038101906102e59190612769565b610dcd565b6040516102f79190612398565b60405180910390f35b61031a600480360381019061031591906127a9565b610f32565b60405161032892919061284b565b60405180910390f35b61034b60048036038101906103469190612769565b611404565b60405161035992919061284b565b60405180910390f35b61037c60048036038101906103779190612769565b6114fd565b6040516103899190612398565b60405180910390f35b6103ac60048036038101906103a79190612874565b611584565b6040516103bb9392919061292a565b60405180910390f35b6000808411610408576040517f08c379a00000000000000000000000000000000000000000000000000000000081526004016103ff906129ad565b60405180910390fd5b6000831180156104185750600082115b610457576040517f08c379a000000000000000000000000000000000000000000000000000000000815260040161044e90612a19565b60405180910390fd5b83836104639190612a68565b828561046f9190612a9c565b6104799190612b0d565b90509392505050565b60606003805461049190612b6d565b80601f01602080910402602001604051908101604052809291908181526020018280546104bd90612b6d565b801561050a5780601f106104df5761010080835404028352916020019161050a565b820191906000526020600020905b8154815290600101906020018083116104ed57829003601f168201915b5050505050905090565b60008061051f611b32565b905061052c818585611b3a565b600191505092915050565b7f000000000000000000000000000000000000000000000000000000000000000081565b6000600254905090565b600080610570611b32565b905061057d858285611b4c565b610588858585611be1565b60019150509392505050565b60006012905090565b80428110156105e1576040517f08c379a00000000000000000000000000000000000000000000000000000000081526004016105d890612bea565b60405180910390fd5b60028585905014801561067057508484600181811061060357610602612c0a565b5b9050602002016020810190610618919061273c565b73ffffffffffffffffffffffffffffffffffffffff168585600081811061064257610641612c0a565b5b9050602002016020810190610657919061273c565b73ffffffffffffffffffffffffffffffffffffffff1614155b6106af576040517f08c379a00000000000000000000000000000000000000000000000000000000081526004016106a690612c85565b60405180910390fd5b7f000000000000000000000000000000000000000000000000000000000000000073ffffffffffffffffffffffffffffffffffffffff16858560008181106106fa576106f9612c0a565b5b905060200201602081019061070f919061273c565b73ffffffffffffffffffffffffffffffffffffffff1614806107a457507f000000000000000000000000000000000000000000000000000000000000000073ffffffffffffffffffffffffffffffffffffffff168585600081811061077757610776612c0a565b5b905060200201602081019061078c919061273c565b73ffffffffffffffffffffffffffffffffffffffff16145b6107e3576040517f08c379a00000000000000000000000000000000000000000000000000000000081526004016107da90612cf1565b60405180910390fd5b7f000000000000000000000000000000000000000000000000000000000000000073ffffffffffffffffffffffffffffffffffffffff168585600181811061082e5761082d612c0a565b5b9050602002016020810190610843919061273c565b73ffffffffffffffffffffffffffffffffffffffff1614806108d857507f000000000000000000000000000000000000000000000000000000000000000073ffffffffffffffffffffffffffffffffffffffff16858560018181106108ab576108aa612c0a565b5b90506020020160208101906108c0919061273c565b73ffffffffffffffffffffffffffffffffffffffff16145b610917576040517f08c379a000000000000000000000000000000000000000000000000000000000815260040161090e90612d5d565b60405180910390fd5b6000807f000000000000000000000000000000000000000000000000000000000000000073ffffffffffffffffffffffffffffffffffffffff168787600081811061096557610964612c0a565b5b905060200201602081019061097a919061273c565b73ffffffffffffffffffffffffffffffffffffffff16146109a0576006546005546109a7565b6005546006545b91509150600089836109b99190612a68565b828b6109c59190612a9c565b6109cf9190612b0d565b905088811015610a14576040517f08c379a0000000000000000000000000000000000000000000000000000000008152600401610a0b90612dc9565b60405180910390fd5b87876000818110610a2857610a27612c0a565b5b9050602002016020810190610a3d919061273c565b73ffffffffffffffffffffffffffffffffffffffff166323b872dd33308d6040518463ffffffff1660e01b8152600401610a7993929190612df8565b6020604051808303816000875af1158015610a98573d6000803e3d6000fd5b505050506040513d601f19601f82011682018060405250810190610abc9190612e5b565b5087876001818110610ad157610ad0612c0a565b5b9050602002016020810190610ae6919061273c565b73ffffffffffffffffffffffffffffffffffffffff1663a9059cbb87836040518363ffffffff1660e01b8152600401610b20929190612e88565b6020604051808303816000875af1158015610b3f573d6000803e3d6000fd5b505050506040513d601f19601f82011682018060405250810190610b639190612e5b565b50610ca07f000000000000000000000000000000000000000000000000000000000000000073ffffffffffffffffffffffffffffffffffffffff166370a08231306040518263ffffffff1660e01b8152600401610bc09190612eb1565b602060405180830381865afa158015610bdd573d6000803e3d6000fd5b505050506040513d601f19601f82011682018060405250810190610c019190612ee1565b7f000000000000000000000000000000000000000000000000000000000000000073ffffffffffffffffffffffffffffffffffffffff166370a08231306040518263ffffffff1660e01b8152600401610c5a9190612eb1565b602060405180830381865afa158015610c77573d6000803e3d6000fd5b505050506040513d601f19601f82011682018060405250810190610c9b9190612ee1565b611cd5565b50505050505050505050565b7f000000000000000000000000000000000000000000000000000000000000000081565b60008060008373ffffffffffffffffffffffffffffffffffffffff1673ffffffffffffffffffffffffffffffffffffffff168152602001908152602001600020549050919050565b606060048054610d2790612b6d565b80601f0160208091040260200160405190810160405280929190818152602001828054610d5390612b6d565b8015610da05780601f10610d7557610100808354040283529160200191610da0565b820191906000526020600020905b815481529060010190602001808311610d8357829003601f168201915b5050505050905090565b600080610db5611b32565b9050610dc2818585611be1565b600191505092915050565b60007f000000000000000000000000000000000000000000000000000000000000000073ffffffffffffffffffffffffffffffffffffffff168373ffffffffffffffffffffffffffffffffffffffff16148015610e7557507f000000000000000000000000000000000000000000000000000000000000000073ffffffffffffffffffffffffffffffffffffffff168273ffffffffffffffffffffffffffffffffffffffff16145b610eb4576040517f08c379a0000000000000000000000000000000000000000000000000000000008152600401610eab90612f5a565b60405180910390fd5b6000600554118015610ec857506000600654115b610f07576040517f08c379a0000000000000000000000000000000000000000000000000000000008152600401610efe90612a19565b60405180910390fd5b600554670de0b6b3a7640000600654610f209190612a9c565b610f2a9190612b0d565b905092915050565b6000808242811015610f79576040517f08c379a0000000000000000000000000000000000000000000000000000000008152600401610f7090612bea565b60405180910390fd5b7f000000000000000000000000000000000000000000000000000000000000000073ffffffffffffffffffffffffffffffffffffffff168a73ffffffffffffffffffffffffffffffffffffffff1614801561101f57507f000000000000000000000000000000000000000000000000000000000000000073ffffffffffffffffffffffffffffffffffffffff168973ffffffffffffffffffffffffffffffffffffffff16145b61105e576040517f08c379a000000000000000000000000000000000000000000000000000000000815260040161105590612f5a565b60405180910390fd5b8761106833610cd0565b10156110a9576040517f08c379a00000000000000000000000000000000000000000000000000000000081526004016110a090612a19565b60405180910390fd5b6110b161055b565b600554896110bf9190612a9c565b6110c99190612b0d565b92506110d361055b565b600654896110e19190612a9c565b6110eb9190612b0d565b915086831015611130576040517f08c379a000000000000000000000000000000000000000000000000000000000815260040161112790612fc6565b60405180910390fd5b85821015611173576040517f08c379a000000000000000000000000000000000000000000000000000000000815260040161116a90613032565b60405180910390fd5b61117d3389611d76565b7f000000000000000000000000000000000000000000000000000000000000000073ffffffffffffffffffffffffffffffffffffffff1663a9059cbb86856040518363ffffffff1660e01b81526004016111d8929190612e88565b6020604051808303816000875af11580156111f7573d6000803e3d6000fd5b505050506040513d601f19601f8201168201806040525081019061121b9190612e5b565b507f000000000000000000000000000000000000000000000000000000000000000073ffffffffffffffffffffffffffffffffffffffff1663a9059cbb86846040518363ffffffff1660e01b8152600401611277929190612e88565b6020604051808303816000875af1158015611296573d6000803e3d6000fd5b505050506040513d601f19601f820116820180604052508101906112ba9190612e5b565b506113f77f000000000000000000000000000000000000000000000000000000000000000073ffffffffffffffffffffffffffffffffffffffff166370a08231306040518263ffffffff1660e01b81526004016113179190612eb1565b602060405180830381865afa158015611334573d6000803e3d6000fd5b505050506040513d601f19601f820116820180604052508101906113589190612ee1565b7f000000000000000000000000000000000000000000000000000000000000000073ffffffffffffffffffffffffffffffffffffffff166370a08231306040518263ffffffff1660e01b81526004016113b19190612eb1565b602060405180830381865afa1580156113ce573d6000803e3d6000fd5b505050506040513d601f19601f820116820180604052508101906113f29190612ee1565b611cd5565b5097509795505050505050565b6000807f000000000000000000000000000000000000000000000000000000000000000073ffffffffffffffffffffffffffffffffffffffff168473ffffffffffffffffffffffffffffffffffffffff161480156114ad57507f000000000000000000000000000000000000000000000000000000000000000073ffffffffffffffffffffffffffffffffffffffff168373ffffffffffffffffffffffffffffffffffffffff16145b6114ec576040517f08c379a00000000000000000000000000000000000000000000000000000000081526004016114e390612f5a565b60405180910390fd5b600554915060065490509250929050565b6000600160008473ffffffffffffffffffffffffffffffffffffffff1673ffffffffffffffffffffffffffffffffffffffff16815260200190815260200160002060008373ffffffffffffffffffffffffffffffffffffffff1673ffffffffffffffffffffffffffffffffffffffff16815260200190815260200160002054905092915050565b600080600083428110156115cd576040517f08c379a00000000000000000000000000000000000000000000000000000000081526004016115c490612bea565b60405180910390fd5b7f000000000000000000000000000000000000000000000000000000000000000073ffffffffffffffffffffffffffffffffffffffff168c73ffffffffffffffffffffffffffffffffffffffff1614801561167357507f000000000000000000000000000000000000000000000000000000000000000073ffffffffffffffffffffffffffffffffffffffff168b73ffffffffffffffffffffffffffffffffffffffff16145b6116b2576040517f08c379a00000000000000000000000000000000000000000000000000000000081526004016116a990612f5a565b60405180910390fd5b60006005549050600060065490506000821480156116d05750600081145b156116e4578b8b8096508197505050611781565b600082828e6116f39190612a9c565b6116fd9190612b0d565b90508b8111611715578c81809750819850505061177f565b600082848e6117249190612a9c565b61172e9190612b0d565b90508b811015611773576040517f08c379a000000000000000000000000000000000000000000000000000000000815260040161176a90612fc6565b60405180910390fd5b808d8098508199505050505b505b8986101580156117915750888510155b6117d0576040517f08c379a00000000000000000000000000000000000000000000000000000000081526004016117c79061309e565b60405180910390fd5b50507f000000000000000000000000000000000000000000000000000000000000000073ffffffffffffffffffffffffffffffffffffffff166323b872dd3330876040518463ffffffff1660e01b815260040161182f93929190612df8565b6020604051808303816000875af115801561184e573d6000803e3d6000fd5b505050506040513d601f19601f820116820180604052508101906118729190612e5b565b507f000000000000000000000000000000000000000000000000000000000000000073ffffffffffffffffffffffffffffffffffffffff166323b872dd3330866040518463ffffffff1660e01b81526004016118d093929190612df8565b6020604051808303816000875af11580156118ef573d6000803e3d6000fd5b505050506040513d601f19601f820116820180604052508101906119139190612e5b565b50600061191e61055b565b0361193e5761193783856119329190612a9c565b611df8565b915061199a565b600060055461194b61055b565b866119569190612a9c565b6119609190612b0d565b9050600060065461196f61055b565b8661197a9190612a9c565b6119849190612b0d565b90508082106119935780611995565b815b935050505b600082116119dd576040517f08c379a00000000000000000000000000000000000000000000000000000000081526004016119d49061310a565b60405180910390fd5b6119e78683611e78565b611b237f000000000000000000000000000000000000000000000000000000000000000073ffffffffffffffffffffffffffffffffffffffff166370a08231306040518263ffffffff1660e01b8152600401611a439190612eb1565b602060405180830381865afa158015611a60573d6000803e3d6000fd5b505050506040513d601f19601f82011682018060405250810190611a849190612ee1565b7f000000000000000000000000000000000000000000000000000000000000000073ffffffffffffffffffffffffffffffffffffffff166370a08231306040518263ffffffff1660e01b8152600401611add9190612eb1565b602060405180830381865afa158015611afa573d6000803e3d6000fd5b505050506040513d601f19601f82011682018060405250810190611b1e9190612ee1565b611cd5565b50985098509895505050505050565b600033905090565b611b478383836001611efa565b505050565b6000611b5884846114fd565b90507fffffffffffffffffffffffffffffffffffffffffffffffffffffffffffffffff811015611bdb5781811015611bcb578281836040517ffb8f41b2000000000000000000000000000000000000000000000000000000008152600401611bc29392919061312a565b60405180910390fd5b611bda84848484036000611efa565b5b50505050565b600073ffffffffffffffffffffffffffffffffffffffff168373ffffffffffffffffffffffffffffffffffffffff1603611c535760006040517f96c6fd1e000000000000000000000000000000000000000000000000000000008152600401611c4a9190612eb1565b60405180910390fd5b600073ffffffffffffffffffffffffffffffffffffffff168273ffffffffffffffffffffffffffffffffffffffff1603611cc55760006040517fec442f05000000000000000000000000000000000000000000000000000000008152600401611cbc9190612eb1565b60405180910390fd5b611cd08383836120d1565b505050565b7fffffffffffffffffffffffffffffffffffffffffffffffffffffffffffffffff8211158015611d2557507fffffffffffffffffffffffffffffffffffffffffffffffffffffffffffffffff8111155b611d64576040517f08c379a0000000000000000000000000000000000000000000000000000000008152600401611d5b906131ad565b60405180910390fd5b81600581905550806006819055505050565b600073ffffffffffffffffffffffffffffffffffffffff168273ffffffffffffffffffffffffffffffffffffffff1603611de85760006040517f96c6fd1e000000000000000000000000000000000000000000000000000000008152600401611ddf9190612eb1565b60405180910390fd5b611df4826000836120d1565b5050565b6000808203611e0a5760009050611e73565b60006001600284611e1b9190612b0d565b611e259190612a68565b90505b600115611e715760006002828581611e4357611e42612ade565b5b04830181611e5457611e53612ade565b5b049050818103611e68578192505050611e73565b80915050611e28565b505b919050565b600073ffffffffffffffffffffffffffffffffffffffff168273ffffffffffffffffffffffffffffffffffffffff1603611eea5760006040517fec442f05000000000000000000000000000000000000000000000000000000008152600401611ee19190612eb1565b60405180910390fd5b611ef6600083836120d1565b5050565b600073ffffffffffffffffffffffffffffffffffffffff168473ffffffffffffffffffffffffffffffffffffffff1603611f6c5760006040517fe602df05000000000000000000000000000000000000000000000000000000008152600401611f639190612eb1565b60405180910390fd5b600073ffffffffffffffffffffffffffffffffffffffff168373ffffffffffffffffffffffffffffffffffffffff1603611fde5760006040517f94280d62000000000000000000000000000000000000000000000000000000008152600401611fd59190612eb1565b60405180910390fd5b81600160008673ffffffffffffffffffffffffffffffffffffffff1673ffffffffffffffffffffffffffffffffffffffff16815260200190815260200160002060008573ffffffffffffffffffffffffffffffffffffffff1673ffffffffffffffffffffffffffffffffffffffff1681526020019081526020016000208190555080156120cb578273ffffffffffffffffffffffffffffffffffffffff168473ffffffffffffffffffffffffffffffffffffffff167f8c5be1e5ebec7d5bd14f71427d1e84f3dd0314c0f7b2291e5b200ac8c7c3b925846040516120c29190612398565b60405180910390a35b50505050565b600073ffffffffffffffffffffffffffffffffffffffff168373ffffffffffffffffffffffffffffffffffffffff16036121235780600260008282546121179190612a68565b925050819055506121f6565b60008060008573ffffffffffffffffffffffffffffffffffffffff1673ffffffffffffffffffffffffffffffffffffffff168152602001908152602001600020549050818110156121af578381836040517fe450d38c0000000000000000000000000000000000000000000000000000000081526004016121a69392919061312a565b60405180910390fd5b8181036000808673ffffffffffffffffffffffffffffffffffffffff1673ffffffffffffffffffffffffffffffffffffffff16815260200190815260200160002081905550505b600073ffffffffffffffffffffffffffffffffffffffff168273ffffffffffffffffffffffffffffffffffffffff160361223f578060026000828254039250508190555061228c565b806000808473ffffffffffffffffffffffffffffffffffffffff1673ffffffffffffffffffffffffffffffffffffffff168152602001908152602001600020600082825401925050819055505b8173ffffffffffffffffffffffffffffffffffffffff168373ffffffffffffffffffffffffffffffffffffffff167fddf252ad1be2c89b69c2b068fc378daa952ba7f163c4a11628f55a4df523b3ef836040516122e99190612398565b60405180910390a3505050565b600080fd5b600080fd5b6000819050919050565b61231381612300565b811461231e57600080fd5b50565b6000813590506123308161230a565b92915050565b60008060006060848603121561234f5761234e6122f6565b5b600061235d86828701612321565b935050602061236e86828701612321565b925050604061237f86828701612321565b9150509250925092565b61239281612300565b82525050565b60006020820190506123ad6000830184612389565b92915050565b600081519050919050565b600082825260208201905092915050565b60005b838110156123ed5780820151818401526020810190506123d2565b60008484015250505050565b6000601f19601f8301169050919050565b6000612415826123b3565b61241f81856123be565b935061242f8185602086016123cf565b612438816123f9565b840191505092915050565b6000602082019050818103600083015261245d818461240a565b905092915050565b600073ffffffffffffffffffffffffffffffffffffffff82169050919050565b600061249082612465565b9050919050565b6124a081612485565b81146124ab57600080fd5b50565b6000813590506124bd81612497565b92915050565b600080604083850312156124da576124d96122f6565b5b60006124e8858286016124ae565b92505060206124f985828601612321565b9150509250929050565b60008115159050919050565b61251881612503565b82525050565b6000602082019050612533600083018461250f565b92915050565b6000819050919050565b600061255e61255961255484612465565b612539565b612465565b9050919050565b600061257082612543565b9050919050565b600061258282612565565b9050919050565b61259281612577565b82525050565b60006020820190506125ad6000830184612589565b92915050565b6000806000606084860312156125cc576125cb6122f6565b5b60006125da868287016124ae565b93505060206125eb868287016124ae565b92505060406125fc86828701612321565b9150509250925092565b600060ff82169050919050565b61261c81612606565b82525050565b60006020820190506126376000830184612613565b92915050565b600080fd5b600080fd5b600080fd5b60008083601f8401126126625761266161263d565b5b8235905067ffffffffffffffff81111561267f5761267e612642565b5b60208301915083602082028301111561269b5761269a612647565b5b9250929050565b60008060008060008060a087890312156126bf576126be6122f6565b5b60006126cd89828a01612321565b96505060206126de89828a01612321565b955050604087013567ffffffffffffffff8111156126ff576126fe6122fb565b5b61270b89828a0161264c565b9450945050606061271e89828a016124ae565b925050608061272f89828a01612321565b9150509295509295509295565b600060208284031215612752576127516122f6565b5b6000612760848285016124ae565b91505092915050565b600080604083850312156127805761277f6122f6565b5b600061278e858286016124ae565b925050602061279f858286016124ae565b9150509250929050565b600080600080600080600060e0888a0312156127c8576127c76122f6565b5b60006127d68a828b016124ae565b97505060206127e78a828b016124ae565b96505060406127f88a828b01612321565b95505060606128098a828b01612321565b945050608061281a8a828b01612321565b93505060a061282b8a828b016124ae565b92505060c061283c8a828b01612321565b91505092959891949750929550565b60006040820190506128606000830185612389565b61286d6020830184612389565b9392505050565b600080600080600080600080610100898b031215612895576128946122f6565b5b60006128a38b828c016124ae565b98505060206128b48b828c016124ae565b97505060406128c58b828c01612321565b96505060606128d68b828c01612321565b95505060806128e78b828c01612321565b94505060a06128f88b828c01612321565b93505060c06129098b828c016124ae565b92505060e061291a8b828c01612321565b9150509295985092959890939650565b600060608201905061293f6000830186612389565b61294c6020830185612389565b6129596040830184612389565b949350505050565b7f494e53554646494349454e545f494e5055545f414d4f554e5400000000000000600082015250565b60006129976019836123be565b91506129a282612961565b602082019050919050565b600060208201905081810360008301526129c68161298a565b9050919050565b7f494e53554646494349454e545f4c495155494449545900000000000000000000600082015250565b6000612a036016836123be565b9150612a0e826129cd565b602082019050919050565b60006020820190508181036000830152612a32816129f6565b9050919050565b7f4e487b7100000000000000000000000000000000000000000000000000000000600052601160045260246000fd5b6000612a7382612300565b9150612a7e83612300565b9250828201905080821115612a9657612a95612a39565b5b92915050565b6000612aa782612300565b9150612ab283612300565b9250828202612ac081612300565b91508282048414831517612ad757612ad6612a39565b5b5092915050565b7f4e487b7100000000000000000000000000000000000000000000000000000000600052601260045260246000fd5b6000612b1882612300565b9150612b2383612300565b925082612b3357612b32612ade565b5b828204905092915050565b7f4e487b7100000000000000000000000000000000000000000000000000000000600052602260045260246000fd5b60006002820490506001821680612b8557607f821691505b602082108103612b9857612b97612b3e565b5b50919050565b7f4558504952454400000000000000000000000000000000000000000000000000600082015250565b6000612bd46007836123be565b9150612bdf82612b9e565b602082019050919050565b60006020820190508181036000830152612c0381612bc7565b9050919050565b7f4e487b7100000000000000000000000000000000000000000000000000000000600052603260045260246000fd5b7f494e56414c49445f504154480000000000000000000000000000000000000000600082015250565b6000612c6f600c836123be565b9150612c7a82612c39565b602082019050919050565b60006020820190508181036000830152612c9e81612c62565b9050919050565b7f494e56414c49445f494e5055545f544f4b454e00000000000000000000000000600082015250565b6000612cdb6013836123be565b9150612ce682612ca5565b602082019050919050565b60006020820190508181036000830152612d0a81612cce565b9050919050565b7f494e56414c49445f4f55545055545f544f4b454e000000000000000000000000600082015250565b6000612d476014836123be565b9150612d5282612d11565b602082019050919050565b60006020820190508181036000830152612d7681612d3a565b9050919050565b7f494e53554646494349454e545f4f55545055545f414d4f554e54000000000000600082015250565b6000612db3601a836123be565b9150612dbe82612d7d565b602082019050919050565b60006020820190508181036000830152612de281612da6565b9050919050565b612df281612485565b82525050565b6000606082019050612e0d6000830186612de9565b612e1a6020830185612de9565b612e276040830184612389565b949350505050565b612e3881612503565b8114612e4357600080fd5b50565b600081519050612e5581612e2f565b92915050565b600060208284031215612e7157612e706122f6565b5b6000612e7f84828501612e46565b91505092915050565b6000604082019050612e9d6000830185612de9565b612eaa6020830184612389565b9392505050565b6000602082019050612ec66000830184612de9565b92915050565b600081519050612edb8161230a565b92915050565b600060208284031215612ef757612ef66122f6565b5b6000612f0584828501612ecc565b91505092915050565b7f494e56414c49445f544f4b454e53000000000000000000000000000000000000600082015250565b6000612f44600e836123be565b9150612f4f82612f0e565b602082019050919050565b60006020820190508181036000830152612f7381612f37565b9050919050565b7f494e53554646494349454e545f415f414d4f554e540000000000000000000000600082015250565b6000612fb06015836123be565b9150612fbb82612f7a565b602082019050919050565b60006020820190508181036000830152612fdf81612fa3565b9050919050565b7f494e53554646494349454e545f425f414d4f554e540000000000000000000000600082015250565b600061301c6015836123be565b915061302782612fe6565b602082019050919050565b6000602082019050818103600083015261304b8161300f565b9050919050565b7f494e53554646494349454e545f4c49515549444954595f414444454400000000600082015250565b6000613088601c836123be565b915061309382613052565b602082019050919050565b600060208201905081810360008301526130b78161307b565b9050919050565b7f494e53554646494349454e545f4c49515549444954595f4d494e544544000000600082015250565b60006130f4601d836123be565b91506130ff826130be565b602082019050919050565b60006020820190508181036000830152613123816130e7565b9050919050565b600060608201905061313f6000830186612de9565b61314c6020830185612389565b6131596040830184612389565b949350505050565b7f4f564552464c4f57000000000000000000000000000000000000000000000000600082015250565b60006131976008836123be565b91506131a282613161565b602082019050919050565b600060208201905081810360008301526131c68161318a565b905091905056fea2646970667358221220d1fe92cf8f472cc02f2b08dde8519e885e454c3678603f155dffeb95c2b6d65564736f6c63430008180033",
  "linkReferences": {},
  "deployedLinkReferences": {}
}