{
  "_format": "hh-sol-artifact-1",
  "contractName": "SimpleSwap",
  "sourceName": "contracts/SimpleSwap.sol",
  "abi": [
    {
      "inputs": [
        {
          "internalType": "address",
          "name": "_tokenA_address",
          "type": "address"
        },
        {
          "internalType": "address",
          "name": "_tokenB_address",
          "type": "address"
        }
      ],
      "stateMutability": "nonpayable",
      "type": "constructor"
    },
    {
      "inputs": [
        {
          "internalType": "address",
          "name": "spender",
          "type": "address"
        },
        {
          "internalType": "uint256",
          "name": "allowance",
          "type": "uint256"
        },
        {
          "internalType": "uint256",
          "name": "needed",
          "type": "uint256"
        }
      ],
      "name": "ERC20InsufficientAllowance",
      "type": "error"
    },
    {
      "inputs": [
        {
          "internalType": "address",
          "name": "sender",
          "type": "address"
        },
        {
          "internalType": "uint256",
          "name": "balance",
          "type": "uint256"
        },
        {
          "internalType": "uint256",
          "name": "needed",
          "type": "uint256"
        }
      ],
      "name": "ERC20InsufficientBalance",
      "type": "error"
    },
    {
      "inputs": [
        {
          "internalType": "address",
          "name": "approver",
          "type": "address"
        }
      ],
      "name": "ERC20InvalidApprover",
      "type": "error"
    },
    {
      "inputs": [
        {
          "internalType": "address",
          "name": "receiver",
          "type": "address"
        }
      ],
      "name": "ERC20InvalidReceiver",
      "type": "error"
    },
    {
      "inputs": [
        {
          "internalType": "address",
          "name": "sender",
          "type": "address"
        }
      ],
      "name": "ERC20InvalidSender",
      "type": "error"
    },
    {
      "inputs": [
        {
          "internalType": "address",
          "name": "spender",
          "type": "address"
        }
      ],
      "name": "ERC20InvalidSpender",
      "type": "error"
    },
    {
      "anonymous": false,
      "inputs": [
        {
          "indexed": true,
          "internalType": "address",
          "name": "sender",
          "type": "address"
        },
        {
          "indexed": false,
          "internalType": "uint256",
          "name": "amountA",
          "type": "uint256"
        },
        {
          "indexed": false,
          "internalType": "uint256",
          "name": "amountB",
          "type": "uint256"
        },
        {
          "indexed": false,
          "internalType": "uint256",
          "name": "liquidity",
          "type": "uint256"
        }
      ],
      "name": "AddLiquidity",
      "type": "event"
    },
    {
      "anonymous": false,
      "inputs": [
        {
          "indexed": true,
          "internalType": "address",
          "name": "owner",
          "type": "address"
        },
        {
          "indexed": true,
          "internalType": "address",
          "name": "spender",
          "type": "address"
        },
        {
          "indexed": false,
          "internalType": "uint256",
          "name": "value",
          "type": "uint256"
        }
      ],
      "name": "Approval",
      "type": "event"
    },
    {
      "anonymous": false,
      "inputs": [
        {
          "indexed": true,
          "internalType": "address",
          "name": "sender",
          "type": "address"
        },
        {
          "indexed": true,
          "internalType": "address",
          "name": "to",
          "type": "address"
        },
        {
          "indexed": false,
          "internalType": "uint256",
          "name": "amountA",
          "type": "uint256"
        },
        {
          "indexed": false,
          "internalType": "uint256",
          "name": "amountB",
          "type": "uint256"
        },
        {
          "indexed": false,
          "internalType": "uint256",
          "name": "burnedLiquidity",
          "type": "uint256"
        }
      ],
      "name": "RemoveLiquidity",
      "type": "event"
    },
    {
      "anonymous": false,
      "inputs": [
        {
          "indexed": true,
          "internalType": "address",
          "name": "sender",
          "type": "address"
        },
        {
          "indexed": false,
          "internalType": "address",
          "name": "tokenIn",
          "type": "address"
        },
        {
          "indexed": false,
          "internalType": "address",
          "name": "tokenOut",
          "type": "address"
        },
        {
          "indexed": false,
          "internalType": "uint256",
          "name": "amountIn",
          "type": "uint256"
        },
        {
          "indexed": false,
          "internalType": "uint256",
          "name": "amountOut",
          "type": "uint256"
        },
        {
          "indexed": true,
          "internalType": "address",
          "name": "to",
          "type": "address"
        }
      ],
      "name": "Swap",
      "type": "event"
    },
    {
      "anonymous": false,
      "inputs": [
        {
          "indexed": true,
          "internalType": "address",
          "name": "from",
          "type": "address"
        },
        {
          "indexed": true,
          "internalType": "address",
          "name": "to",
          "type": "address"
        },
        {
          "indexed": false,
          "internalType": "uint256",
          "name": "value",
          "type": "uint256"
        }
      ],
      "name": "Transfer",
      "type": "event"
    },
    {
      "inputs": [
        {
          "internalType": "address",
          "name": "_tokenA",
          "type": "address"
        },
        {
          "internalType": "address",
          "name": "_tokenB",
          "type": "address"
        },
        {
          "internalType": "uint256",
          "name": "amountADesired",
          "type": "uint256"
        },
        {
          "internalType": "uint256",
          "name": "amountBDesired",
          "type": "uint256"
        },
        {
          "internalType": "uint256",
          "name": "amountAMin",
          "type": "uint256"
        },
        {
          "internalType": "uint256",
          "name": "amountBMin",
          "type": "uint256"
        },
        {
          "internalType": "address",
          "name": "to",
          "type": "address"
        },
        {
          "internalType": "uint256",
          "name": "deadline",
          "type": "uint256"
        }
      ],
      "name": "addLiquidity",
      "outputs": [
        {
          "internalType": "uint256",
          "name": "amountA",
          "type": "uint256"
        },
        {
          "internalType": "uint256",
          "name": "amountB",
          "type": "uint256"
        },
        {
          "internalType": "uint256",
          "name": "liquidity",
          "type": "uint256"
        }
      ],
      "stateMutability": "nonpayable",
      "type": "function"
    },
    {
      "inputs": [
        {
          "internalType": "address",
          "name": "owner",
          "type": "address"
        },
        {
          "internalType": "address",
          "name": "spender",
          "type": "address"
        }
      ],
      "name": "allowance",
      "outputs": [
        {
          "internalType": "uint256",
          "name": "",
          "type": "uint256"
        }
      ],
      "stateMutability": "view",
      "type": "function"
    },
    {
      "inputs": [
        {
          "internalType": "address",
          "name": "spender",
          "type": "address"
        },
        {
          "internalType": "uint256",
          "name": "value",
          "type": "uint256"
        }
      ],
      "name": "approve",
      "outputs": [
        {
          "internalType": "bool",
          "name": "",
          "type": "bool"
        }
      ],
      "stateMutability": "nonpayable",
      "type": "function"
    },
    {
      "inputs": [
        {
          "internalType": "address",
          "name": "account",
          "type": "address"
        }
      ],
      "name": "balanceOf",
      "outputs": [
        {
          "internalType": "uint256",
          "name": "",
          "type": "uint256"
        }
      ],
      "stateMutability": "view",
      "type": "function"
    },
    {
      "inputs": [],
      "name": "decimals",
      "outputs": [
        {
          "internalType": "uint8",
          "name": "",
          "type": "uint8"
        }
      ],
      "stateMutability": "view",
      "type": "function"
    },
    {
      "inputs": [
        {
          "internalType": "uint256",
          "name": "amountIn",
          "type": "uint256"
        },
        {
          "internalType": "uint256",
          "name": "_reserveIn",
          "type": "uint256"
        },
        {
          "internalType": "uint256",
          "name": "_reserveOut",
          "type": "uint256"
        }
      ],
      "name": "getAmountOut",
      "outputs": [
        {
          "internalType": "uint256",
          "name": "amountOut",
          "type": "uint256"
        }
      ],
      "stateMutability": "pure",
      "type": "function"
    },
    {
      "inputs": [
        {
          "internalType": "address",
          "name": "_tokenA",
          "type": "address"
        },
        {
          "internalType": "address",
          "name": "_tokenB",
          "type": "address"
        }
      ],
      "name": "getPrice",
      "outputs": [
        {
          "internalType": "uint256",
          "name": "price",
          "type": "uint256"
        }
      ],
      "stateMutability": "view",
      "type": "function"
    },
    {
      "inputs": [
        {
          "internalType": "address",
          "name": "_tokenA",
          "type": "address"
        },
        {
          "internalType": "address",
          "name": "_tokenB",
          "type": "address"
        }
      ],
      "name": "getReserves",
      "outputs": [
        {
          "internalType": "uint256",
          "name": "_reserveA",
          "type": "uint256"
        },
        {
          "internalType": "uint256",
          "name": "_reserveB",
          "type": "uint256"
        }
      ],
      "stateMutability": "view",
      "type": "function"
    },
    {
      "inputs": [],
      "name": "name",
      "outputs": [
        {
          "internalType": "string",
          "name": "",
          "type": "string"
        }
      ],
      "stateMutability": "view",
      "type": "function"
    },
    {
      "inputs": [
        {
          "internalType": "address",
          "name": "_tokenA",
          "type": "address"
        },
        {
          "internalType": "address",
          "name": "_tokenB",
          "type": "address"
        },
        {
          "internalType": "uint256",
          "name": "_liquidity",
          "type": "uint256"
        },
        {
          "internalType": "uint256",
          "name": "amountAMin",
          "type": "uint256"
        },
        {
          "internalType": "uint256",
          "name": "amountBMin",
          "type": "uint256"
        },
        {
          "internalType": "address",
          "name": "to",
          "type": "address"
        },
        {
          "internalType": "uint256",
          "name": "deadline",
          "type": "uint256"
        }
      ],
      "name": "removeLiquidity",
      "outputs": [
        {
          "internalType": "uint256",
          "name": "amountA",
          "type": "uint256"
        },
        {
          "internalType": "uint256",
          "name": "amountB",
          "type": "uint256"
        }
      ],
      "stateMutability": "nonpayable",
      "type": "function"
    },
    {
      "inputs": [
        {
          "internalType": "uint256",
          "name": "amountIn",
          "type": "uint256"
        },
        {
          "internalType": "uint256",
          "name": "amountOutMin",
          "type": "uint256"
        },
        {
          "internalType": "address[]",
          "name": "path",
          "type": "address[]"
        },
        {
          "internalType": "address",
          "name": "to",
          "type": "address"
        },
        {
          "internalType": "uint256",
          "name": "deadline",
          "type": "uint256"
        }
      ],
      "name": "swapExactTokensForTokens",
      "outputs": [],
      "stateMutability": "nonpayable",
      "type": "function"
    },
    {
      "inputs": [],
      "name": "symbol",
      "outputs": [
        {
          "internalType": "string",
          "name": "",
          "type": "string"
        }
      ],
      "stateMutability": "view",
      "type": "function"
    },
    {
      "inputs": [],
      "name": "tokenA",
      "outputs": [
        {
          "internalType": "contract IERC20",
          "name": "",
          "type": "address"
        }
      ],
      "stateMutability": "view",
      "type": "function"
    },
    {
      "inputs": [],
      "name": "tokenB",
      "outputs": [
        {
          "internalType": "contract IERC20",
          "name": "",
          "type": "address"
        }
      ],
      "stateMutability": "view",
      "type": "function"
    },
    {
      "inputs": [],
      "name": "totalSupply",
      "outputs": [
        {
          "internalType": "uint256",
          "name": "",
          "type": "uint256"
        }
      ],
      "stateMutability": "view",
      "type": "function"
    },
    {
      "inputs": [
        {
          "internalType": "address",
          "name": "to",
          "type": "address"
        },
        {
          "internalType": "uint256",
          "name": "value",
          "type": "uint256"
        }
      ],
      "name": "transfer",
      "outputs": [
        {
          "internalType": "bool",
          "name": "",
          "type": "bool"
        }
      ],
      "stateMutability": "nonpayable",
      "type": "function"
    },
    {
      "inputs": [
        {
          "internalType": "address",
          "name": "from",
          "type": "address"
        },
        {
          "internalType": "address",
          "name": "to",
          "type": "address"
        },
        {
          "internalType": "uint256",
          "name": "value",
          "type": "uint256"
        }
      ],
      "name": "transferFrom",
      "outputs": [
        {
          "internalType": "bool",
          "name": "",
          "type": "bool"
        }
      ],
      "stateMutability": "nonpayable",
      "type": "function"
    }
  ],
  "bytecode": "0x60c06040523480156200001157600080fd5b5060405162004ab238038062004ab28339818101604052810190620000379190620003f8565b6040518060400160405280600d81526020017f53696d706c6553776170204c50000000000000000000000000000000000000008152506040518060400160405280600381526020017f534c5000000000000000000000000000000000000000000000000000000000008152508160039081620000b49190620006b9565b508060049081620000c69190620006b9565b505050620000e567fe14e5dbe944e1cd60c01b6200038b60201b60201c565b6200010167a79d70cbc6bb57e060c01b6200038b60201b60201c565b6200011d67d3fe5c931faf7f4c60c01b6200038b60201b60201c565b6200013967a33dbc87d7d3ff3b60c01b6200038b60201b60201c565b600073ffffffffffffffffffffffffffffffffffffffff168273ffffffffffffffffffffffffffffffffffffffff1614158015620001a45750600073ffffffffffffffffffffffffffffffffffffffff168173ffffffffffffffffffffffffffffffffffffffff1614155b620001e6576040517f08c379a0000000000000000000000000000000000000000000000000000000008152600401620001dd9062000801565b60405180910390fd5b6200020267def3043a1b80389460c01b6200038b60201b60201c565b6200021e677a9f76ff2b616d1660c01b6200038b60201b60201c565b6200023a6755c49b47416ed64860c01b6200038b60201b60201c565b62000256677689498d5f6c7d7d60c01b6200038b60201b60201c565b8073ffffffffffffffffffffffffffffffffffffffff168273ffffffffffffffffffffffffffffffffffffffff1603620002c7576040517f08c379a0000000000000000000000000000000000000000000000000000000008152600401620002be9062000873565b60405180910390fd5b620002e367f7b0d0a85434f44660c01b6200038b60201b60201c565b620002ff67be0338b5fcef00fc60c01b6200038b60201b60201c565b8173ffffffffffffffffffffffffffffffffffffffff1660808173ffffffffffffffffffffffffffffffffffffffff16815250506200034f67634b6286618adb6f60c01b6200038b60201b60201c565b8073ffffffffffffffffffffffffffffffffffffffff1660a08173ffffffffffffffffffffffffffffffffffffffff1681525050505062000895565b50565b600080fd5b600073ffffffffffffffffffffffffffffffffffffffff82169050919050565b6000620003c08262000393565b9050919050565b620003d281620003b3565b8114620003de57600080fd5b50565b600081519050620003f281620003c7565b92915050565b600080604083850312156200041257620004116200038e565b5b60006200042285828601620003e1565b92505060206200043585828601620003e1565b9150509250929050565b600081519050919050565b7f4e487b7100000000000000000000000000000000000000000000000000000000600052604160045260246000fd5b7f4e487b7100000000000000000000000000000000000000000000000000000000600052602260045260246000fd5b60006002820490506001821680620004c157607f821691505b602082108103620004d757620004d662000479565b5b50919050565b60008190508160005260206000209050919050565b60006020601f8301049050919050565b600082821b905092915050565b600060088302620005417fffffffffffffffffffffffffffffffffffffffffffffffffffffffffffffffff8262000502565b6200054d868362000502565b95508019841693508086168417925050509392505050565b6000819050919050565b6000819050919050565b60006200059a620005946200058e8462000565565b6200056f565b62000565565b9050919050565b6000819050919050565b620005b68362000579565b620005ce620005c582620005a1565b8484546200050f565b825550505050565b600090565b620005e5620005d6565b620005f2818484620005ab565b505050565b5b818110156200061a576200060e600082620005db565b600181019050620005f8565b5050565b601f82111562000669576200063381620004dd565b6200063e84620004f2565b810160208510156200064e578190505b620006666200065d85620004f2565b830182620005f7565b50505b505050565b600082821c905092915050565b60006200068e600019846008026200066e565b1980831691505092915050565b6000620006a983836200067b565b9150826002028217905092915050565b620006c4826200043f565b67ffffffffffffffff811115620006e057620006df6200044a565b5b620006ec8254620004a8565b620006f98282856200061e565b600060209050601f8311600181146200073157600084156200071c578287015190505b6200072885826200069b565b86555062000798565b601f1984166200074186620004dd565b60005b828110156200076b5784890151825560018201915060208501945060208101905062000744565b868310156200078b578489015162000787601f8916826200067b565b8355505b6001600288020188555050505b505050505050565b600082825260208201905092915050565b7f5a45524f5f414444524553530000000000000000000000000000000000000000600082015250565b6000620007e9600c83620007a0565b9150620007f682620007b1565b602082019050919050565b600060208201905081810360008301526200081c81620007da565b9050919050565b7f4944454e544943414c5f41444452000000000000000000000000000000000000600082015250565b60006200085b600e83620007a0565b9150620008688262000823565b602082019050919050565b600060208201905081810360008301526200088e816200084c565b9050919050565b60805160a051614172620009406000396000818161096701528181610b230152818161109d01528181611266015281816115e401528181611a5401528181611c6d01528181611f5f015281816124610152612a83015260008181610616015281816108ce01528181610a8a01528181610c35015281816112100152818161158e0152818161198d01528181611c1701528181611f090152818161239801526129cf01526141726000f3fe608060405234801561001057600080fd5b506004361061010b5760003560e01c80635f64b55b116100a2578063ac41865a11610071578063ac41865a146102d0578063baa2abde14610300578063d52bb6f414610331578063dd62ed3e14610362578063e8e33700146103925761010b565b80635f64b55b1461023457806370a082311461025257806395d89b4114610282578063a9059cbb146102a05761010b565b806318160ddd116100de57806318160ddd146101ac57806323b872dd146101ca578063313ce567146101fa57806338ed1739146102185761010b565b8063054d50d41461011057806306fdde0314610140578063095ea7b31461015e5780630fc63d101461018e575b600080fd5b61012a60048036038101906101259190613260565b6103c4565b60405161013791906132c2565b60405180910390f35b61014861055f565b604051610155919061336d565b60405180910390f35b610178600480360381019061017391906133ed565b6105f1565b6040516101859190613448565b60405180910390f35b610196610614565b6040516101a391906134c2565b60405180910390f35b6101b4610638565b6040516101c191906132c2565b60405180910390f35b6101e460048036038101906101df91906134dd565b610642565b6040516101f19190613448565b60405180910390f35b610202610671565b60405161020f919061354c565b60405180910390f35b610232600480360381019061022d91906135cc565b61067a565b005b61023c61109b565b60405161024991906134c2565b60405180910390f35b61026c60048036038101906102679190613666565b6110bf565b60405161027991906132c2565b60405180910390f35b61028a611107565b604051610297919061336d565b60405180910390f35b6102ba60048036038101906102b591906133ed565b611199565b6040516102c79190613448565b60405180910390f35b6102ea60048036038101906102e59190613693565b6111bc565b6040516102f791906132c2565b60405180910390f35b61031a600480360381019061031591906136d3565b611455565b604051610328929190613775565b60405180910390f35b61034b60048036038101906103469190613693565b611bc2565b604051610359929190613775565b60405180910390f35b61037c60048036038101906103779190613693565b611d47565b60405161038991906132c2565b60405180910390f35b6103ac60048036038101906103a7919061379e565b611dce565b6040516103bb93929190613854565b60405180910390f35b60006103da674e72cf3def10777060c01b6127ed565b6103ee675064bf1a7dadd83c60c01b6127ed565b61040267d33bff571b2a3dcf60c01b6127ed565b610416677975e487e6785fd860c01b6127ed565b60008411610459576040517f08c379a0000000000000000000000000000000000000000000000000000000008152600401610450906138d7565b60405180910390fd5b61046d6780684146060d103160c01b6127ed565b61048167283e54834a02926260c01b6127ed565b61049567bf6920319da7215360c01b6127ed565b6104a967738063a93f88a72960c01b6127ed565b6000831180156104b95750600082115b6104f8576040517f08c379a00000000000000000000000000000000000000000000000000000000081526004016104ef90613943565b60405180910390fd5b61050c673ffe2bae1936f27560c01b6127ed565b610520671975004eec02acc860c01b6127ed565b6105346706d51fbcf17a32ec60c01b6127ed565b83836105409190613992565b828561054c91906139c6565b6105569190613a37565b90509392505050565b60606003805461056e90613a97565b80601f016020809104026020016040519081016040528092919081815260200182805461059a90613a97565b80156105e75780601f106105bc576101008083540402835291602001916105e7565b820191906000526020600020905b8154815290600101906020018083116105ca57829003601f168201915b5050505050905090565b6000806105fc6127f0565b90506106098185856127f8565b600191505092915050565b7f000000000000000000000000000000000000000000000000000000000000000081565b6000600254905090565b60008061064d6127f0565b905061065a85828561280a565b61066585858561289f565b60019150509392505050565b60006012905090565b61068e670d6d0757b548c13b60c01b6127ed565b806106a367887637f9985922ae60c01b6127ed565b6106b7672ad42de3494a286760c01b6127ed565b6106cb6713263c3a2c6b91ae60c01b6127ed565b6106df67b7b9ad46cd6af91660c01b6127ed565b42811015610722576040517f08c379a000000000000000000000000000000000000000000000000000000000815260040161071990613b14565b60405180910390fd5b61073667c0900f44b7a5133160c01b6127ed565b61074a679be238bba63f98aa60c01b6127ed565b61075e67708470119512730260c01b6127ed565b61077267f4af244d263868f460c01b6127ed565b610786675f4902836532ff7f60c01b6127ed565b61079a6719466d1abd085dc560c01b6127ed565b6107ae675bd69577c0dfc28f60c01b6127ed565b60028585905014801561083d5750848460018181106107d0576107cf613b34565b5b90506020020160208101906107e59190613666565b73ffffffffffffffffffffffffffffffffffffffff168585600081811061080f5761080e613b34565b5b90506020020160208101906108249190613666565b73ffffffffffffffffffffffffffffffffffffffff1614155b61087c576040517f08c379a000000000000000000000000000000000000000000000000000000000815260040161087390613baf565b60405180910390fd5b6108906766df7142a58a9acf60c01b6127ed565b6108a467f44cfd06501df4b360c01b6127ed565b6108b86745396d023de8668560c01b6127ed565b6108cc67fec9cb8a2b6c9b5960c01b6127ed565b7f000000000000000000000000000000000000000000000000000000000000000073ffffffffffffffffffffffffffffffffffffffff168585600081811061091757610916613b34565b5b905060200201602081019061092c9190613666565b73ffffffffffffffffffffffffffffffffffffffff1614801561095f575061095e671d40887b10c3ef6e60c01b612993565b5b806109f957507f000000000000000000000000000000000000000000000000000000000000000073ffffffffffffffffffffffffffffffffffffffff16858560008181106109b0576109af613b34565b5b90506020020160208101906109c59190613666565b73ffffffffffffffffffffffffffffffffffffffff161480156109f857506109f76754a61c0b4412950560c01b612993565b5b5b610a38576040517f08c379a0000000000000000000000000000000000000000000000000000000008152600401610a2f90613c1b565b60405180910390fd5b610a4c67f2924c3c294a7ee760c01b6127ed565b610a606769626fb414afe0ef60c01b6127ed565b610a7467b3162c04c1fb53cd60c01b6127ed565b610a88679c05deb3e8b5677760c01b6127ed565b7f000000000000000000000000000000000000000000000000000000000000000073ffffffffffffffffffffffffffffffffffffffff1685856001818110610ad357610ad2613b34565b5b9050602002016020810190610ae89190613666565b73ffffffffffffffffffffffffffffffffffffffff16148015610b1b5750610b1a67ac36df312495aba160c01b612993565b5b80610bb557507f000000000000000000000000000000000000000000000000000000000000000073ffffffffffffffffffffffffffffffffffffffff1685856001818110610b6c57610b6b613b34565b5b9050602002016020810190610b819190613666565b73ffffffffffffffffffffffffffffffffffffffff16148015610bb45750610bb367d4823676b209bc8760c01b612993565b5b5b610bf4576040517f08c379a0000000000000000000000000000000000000000000000000000000008152600401610beb90613c87565b60405180910390fd5b610c08672abeef3784aa970760c01b6127ed565b610c1c67fd7677f5cce91b9860c01b6127ed565b610c3067dd0a41b41b59567560c01b6127ed565b6000807f000000000000000000000000000000000000000000000000000000000000000073ffffffffffffffffffffffffffffffffffffffff1687876000818110610c7e57610c7d613b34565b5b9050602002016020810190610c939190613666565b73ffffffffffffffffffffffffffffffffffffffff161480610cc55750610cc467a542283cce19f68860c01b61299e565b5b8015610ce15750610ce0674ddff3139982c78960c01b612993565b5b610cf057600654600554610cf7565b6005546006545b91509150610d0f673d328f22740f918360c01b6127ed565b610d23676f10008a90c9207760c01b6127ed565b60008983610d319190613992565b828b610d3d91906139c6565b610d479190613a37565b9050610d5d6756ce7cddece3dc0060c01b6127ed565b610d7167b5ad0def0f6ddf4360c01b6127ed565b610d856731a604481f8de5df60c01b6127ed565b88811015610dc8576040517f08c379a0000000000000000000000000000000000000000000000000000000008152600401610dbf90613cf3565b60405180910390fd5b610ddc67b9b85ca52acc673960c01b6127ed565b610df06774d9f4e927712f5460c01b6127ed565b610e0467ab986c82693a529160c01b6127ed565b87876000818110610e1857610e17613b34565b5b9050602002016020810190610e2d9190613666565b73ffffffffffffffffffffffffffffffffffffffff166323b872dd33308d6040518463ffffffff1660e01b8152600401610e6993929190613d22565b6020604051808303816000875af1158015610e88573d6000803e3d6000fd5b505050506040513d601f19601f82011682018060405250810190610eac9190613d85565b50610ec1672388cd65c37a28db60c01b6127ed565b610ed5679ad1d1f46bfb8ab460c01b6127ed565b87876001818110610ee957610ee8613b34565b5b9050602002016020810190610efe9190613666565b73ffffffffffffffffffffffffffffffffffffffff1663a9059cbb87836040518363ffffffff1660e01b8152600401610f38929190613db2565b6020604051808303816000875af1158015610f57573d6000803e3d6000fd5b505050506040513d601f19601f82011682018060405250810190610f7b9190613d85565b50610f9067cba7c1b3d69951ab60c01b6127ed565b610fa467a5febb1a5e12c75260c01b6127ed565b610fac6129a5565b610fc0670307488d1fb71cbc60c01b6127ed565b610fd4674c864081c75fe2b760c01b6127ed565b8573ffffffffffffffffffffffffffffffffffffffff163373ffffffffffffffffffffffffffffffffffffffff167f54787c404bb33c88e86f4baf88183a3b0141d0a848e6a9f7a13b66ae3a9b73d18a8a600081811061103757611036613b34565b5b905060200201602081019061104c9190613666565b8b8b60018181106110605761105f613b34565b5b90506020020160208101906110759190613666565b8e866040516110879493929190613ddb565b60405180910390a350505050505050505050565b7f000000000000000000000000000000000000000000000000000000000000000081565b60008060008373ffffffffffffffffffffffffffffffffffffffff1673ffffffffffffffffffffffffffffffffffffffff168152602001908152602001600020549050919050565b60606004805461111690613a97565b80601f016020809104026020016040519081016040528092919081815260200182805461114290613a97565b801561118f5780601f106111645761010080835404028352916020019161118f565b820191906000526020600020905b81548152906001019060200180831161117257829003601f168201915b5050505050905090565b6000806111a46127f0565b90506111b181858561289f565b600191505092915050565b60006111d2670e2dcef4772e140560c01b6127ed565b6111e667e1000944f31c71d760c01b6127ed565b6111fa6775a6858a225ad27860c01b6127ed565b61120e67b1c393ec48963b8060c01b6127ed565b7f000000000000000000000000000000000000000000000000000000000000000073ffffffffffffffffffffffffffffffffffffffff168373ffffffffffffffffffffffffffffffffffffffff161480156112b457507f000000000000000000000000000000000000000000000000000000000000000073ffffffffffffffffffffffffffffffffffffffff168273ffffffffffffffffffffffffffffffffffffffff16145b6112f3576040517f08c379a00000000000000000000000000000000000000000000000000000000081526004016112ea90613e6c565b60405180910390fd5b611307676008344b9dea5fd760c01b6127ed565b61131b67075dd32c4ffa409b60c01b6127ed565b61132f670938ff6a84ae8e8360c01b6127ed565b6000600554905061134a677cb31dd30a512cd060c01b6127ed565b61135e6788ba7885d2438bdf60c01b6127ed565b6000600654905061137967221361f243798fb860c01b6127ed565b61138d67deb349be3c37fda360c01b6127ed565b6113a167e459c4c9fa15952f60c01b6127ed565b6000821180156113b15750600081115b6113f0576040517f08c379a00000000000000000000000000000000000000000000000000000000081526004016113e790613943565b60405180910390fd5b6114046756a07f44efd16dc260c01b6127ed565b611418676a531db3c5ea546060c01b6127ed565b61142c6739a13e75aa3ae52860c01b6127ed565b81670de0b6b3a76400008261144191906139c6565b61144b9190613a37565b9250505092915050565b60008061146c67e6e4163945c1924d60c01b6127ed565b8261148167887637f9985922ae60c01b6127ed565b611495672ad42de3494a286760c01b6127ed565b6114a96713263c3a2c6b91ae60c01b6127ed565b6114bd67b7b9ad46cd6af91660c01b6127ed565b42811015611500576040517f08c379a00000000000000000000000000000000000000000000000000000000081526004016114f790613b14565b60405180910390fd5b61151467c0900f44b7a5133160c01b6127ed565b611528679be238bba63f98aa60c01b6127ed565b61153c6771ca45dc4dfd276760c01b6127ed565b61155067987d874d375b184460c01b6127ed565b611564677c4fefe64f2ba69a60c01b6127ed565b61157867bbf5c785f299c1e960c01b6127ed565b61158c67e72f8eb3b0fb2a5b60c01b6127ed565b7f000000000000000000000000000000000000000000000000000000000000000073ffffffffffffffffffffffffffffffffffffffff168a73ffffffffffffffffffffffffffffffffffffffff1614801561163257507f000000000000000000000000000000000000000000000000000000000000000073ffffffffffffffffffffffffffffffffffffffff168973ffffffffffffffffffffffffffffffffffffffff16145b611671576040517f08c379a000000000000000000000000000000000000000000000000000000000815260040161166890613e6c565b60405180910390fd5b61168567dc7af49fa57efd5b60c01b6127ed565b6116996740b4de78039845a860c01b6127ed565b6116ad675b6078d7c9de1edf60c01b6127ed565b6116c06672a0c1d098ed0560c01b6127ed565b876116ca336110bf565b101561170b576040517f08c379a000000000000000000000000000000000000000000000000000000000815260040161170290613ed8565b60405180910390fd5b61171f67b9725f1e1172b35260c01b6127ed565b61173367e873617964f8da3660c01b6127ed565b61174767d1eb0d282678e73860c01b6127ed565b6000611751610638565b9050611767670d9ee9f6ba7c3ce460c01b6127ed565b61177b6717402087ac85d34160c01b6127ed565b6000600554905061179667deb29154f87e1c8260c01b6127ed565b6117aa67f1800a020cf11c1060c01b6127ed565b600060065490506117c5676f7e22210ec68b7960c01b6127ed565b82828c6117d291906139c6565b6117dc9190613a37565b95506117f267bd0d77ee0e3d8b3e60c01b6127ed565b82818c6117ff91906139c6565b6118099190613a37565b945061181f672bda8ac0d515060660c01b6127ed565b6118336783801f90449d4e2060c01b6127ed565b6118476717a9d47f5696450060c01b6127ed565b8986101561188a576040517f08c379a000000000000000000000000000000000000000000000000000000000815260040161188190613f44565b60405180910390fd5b61189e67a86d1f07b9d1a05760c01b6127ed565b6118b2679e79a6c704cdfbdf60c01b6127ed565b6118c667ae340604479c7c9160c01b6127ed565b6118da678442b341aeadf44d60c01b6127ed565b8885101561191d576040517f08c379a000000000000000000000000000000000000000000000000000000000815260040161191490613fb0565b60405180910390fd5b61193167a487c4a8139df06b60c01b6127ed565b611945676b2d1d2fe3de4dd960c01b6127ed565b611959677b2f7aa3497ae21960c01b6127ed565b611963338c612b23565b61197767568efa71520a1a1960c01b6127ed565b61198b671bccacaa21a13f4d60c01b6127ed565b7f000000000000000000000000000000000000000000000000000000000000000073ffffffffffffffffffffffffffffffffffffffff1663a9059cbb89886040518363ffffffff1660e01b81526004016119e6929190613db2565b6020604051808303816000875af1158015611a05573d6000803e3d6000fd5b505050506040513d601f19601f82011682018060405250810190611a299190613d85565b50611a3e67aa9f6dbe6370823160c01b6127ed565b611a52678cfc37ed2f52bebd60c01b6127ed565b7f000000000000000000000000000000000000000000000000000000000000000073ffffffffffffffffffffffffffffffffffffffff1663a9059cbb89876040518363ffffffff1660e01b8152600401611aad929190613db2565b6020604051808303816000875af1158015611acc573d6000803e3d6000fd5b505050506040513d601f19601f82011682018060405250810190611af09190613d85565b50611b05676e49640fc695aa5f60c01b6127ed565b611b1967fe1593185eafedca60c01b6127ed565b611b216129a5565b611b3567046c37905d0b694d60c01b6127ed565b611b49670537b2d01024223f60c01b6127ed565b8773ffffffffffffffffffffffffffffffffffffffff163373ffffffffffffffffffffffffffffffffffffffff167feb755d537a0caac69ccb1ac1dc2b7397a32bb19f93bd06013c57ac0b2e5dd69c88888f604051611baa93929190613854565b60405180910390a35050505097509795505050505050565b600080611bd967ce2c624ae90df8dc60c01b6127ed565b611bed679ca67f59be5f5c1760c01b6127ed565b611c01677585c3e06f76167b60c01b6127ed565b611c1567d5be4dc38867dd3560c01b6127ed565b7f000000000000000000000000000000000000000000000000000000000000000073ffffffffffffffffffffffffffffffffffffffff168473ffffffffffffffffffffffffffffffffffffffff16148015611cbb57507f000000000000000000000000000000000000000000000000000000000000000073ffffffffffffffffffffffffffffffffffffffff168373ffffffffffffffffffffffffffffffffffffffff16145b611cfa576040517f08c379a0000000000000000000000000000000000000000000000000000000008152600401611cf190613e6c565b60405180910390fd5b611d0e676c60c83c5cc6cc4460c01b6127ed565b611d2267a37b9f5febe4bea660c01b6127ed565b6005549150611d3b673fa71373d6fcca8460c01b6127ed565b60065490509250929050565b6000600160008473ffffffffffffffffffffffffffffffffffffffff1673ffffffffffffffffffffffffffffffffffffffff16815260200190815260200160002060008373ffffffffffffffffffffffffffffffffffffffff1673ffffffffffffffffffffffffffffffffffffffff16815260200190815260200160002054905092915050565b6000806000611de76778e0446ba44ccbc360c01b6127ed565b83611dfc67887637f9985922ae60c01b6127ed565b611e10672ad42de3494a286760c01b6127ed565b611e246713263c3a2c6b91ae60c01b6127ed565b611e3867b7b9ad46cd6af91660c01b6127ed565b42811015611e7b576040517f08c379a0000000000000000000000000000000000000000000000000000000008152600401611e7290613b14565b60405180910390fd5b611e8f67c0900f44b7a5133160c01b6127ed565b611ea3679be238bba63f98aa60c01b6127ed565b611eb767d8048cc5a07dda5060c01b6127ed565b611ecb67b424ddeb44c018d060c01b6127ed565b611edf6785ee8df13e434f2f60c01b6127ed565b611ef36770d1526d60a050b160c01b6127ed565b611f076701fd9a14a169f78b60c01b6127ed565b7f000000000000000000000000000000000000000000000000000000000000000073ffffffffffffffffffffffffffffffffffffffff168c73ffffffffffffffffffffffffffffffffffffffff16148015611fad57507f000000000000000000000000000000000000000000000000000000000000000073ffffffffffffffffffffffffffffffffffffffff168b73ffffffffffffffffffffffffffffffffffffffff16145b611fec576040517f08c379a0000000000000000000000000000000000000000000000000000000008152600401611fe390613e6c565b60405180910390fd5b6120006789cfce02a3c6ee8b60c01b6127ed565b61201467c3ad392dbbc7918160c01b6127ed565b61202867241db546765e34aa60c01b6127ed565b6000600554905061204367f9d7800bed7f955160c01b6127ed565b612057670909e09a1ec738d060c01b6127ed565b6000600654905061207267c090759d5e7bfa1d60c01b6127ed565b61208667bc45a8de1781bbbd60c01b6127ed565b6000612090610638565b90506120a667b2bfc3792b4b6f8060c01b6127ed565b6120ba67a7584ac991369a9260c01b6127ed565b6000831480156120ca5750600082145b15612106576120e3677820ed3455a8b3d260c01b6127ed565b6120f76753fb56deb84cdb4260c01b6127ed565b8c8c80975081985050506122cf565b61211a678363496a107fb45b60c01b6127ed565b61212e67f2cfaabb17e4c4e260c01b6127ed565b612142673d0b391333f7425b60c01b6127ed565b600083838f61215191906139c6565b61215b9190613a37565b905061217167db3a18d601b5b29e60c01b6127ed565b61218567f078ac46c8f2b35460c01b6127ed565b8c81116121c3576121a0675c6d93c802ea751860c01b6127ed565b6121b467e59d183ad6295b0f60c01b6127ed565b8d8180985081995050506122cd565b6121d767ad7727ca2ce2861960c01b6127ed565b6121eb679b0c17d3407d595260c01b6127ed565b6121ff6775fa57137848484260c01b6127ed565b600083858f61220e91906139c6565b6122189190613a37565b905061222e674355aba44362a5e760c01b6127ed565b6122426765f8c9602edb66d960c01b6127ed565b612256675b51d9a5f843fab960c01b6127ed565b8c811015612299576040517f08c379a000000000000000000000000000000000000000000000000000000000815260040161229090613f44565b60405180910390fd5b6122ad67b0c62fc585c694eb60c01b6127ed565b6122c167d1b121c7622fd2d960c01b6127ed565b808e809950819a505050505b505b6122e3679285c62baf52e75b60c01b6127ed565b6122f76765fafd75f94bb8e660c01b6127ed565b61230b677fdceeb24b97861660c01b6127ed565b8a871015801561231b5750898610155b61235a576040517f08c379a00000000000000000000000000000000000000000000000000000000081526004016123519061401c565b60405180910390fd5b61236e679de615d42516d5c360c01b6127ed565b61238267080ff48e273eafae60c01b6127ed565b612396679ae98f92e6c268f860c01b6127ed565b7f000000000000000000000000000000000000000000000000000000000000000073ffffffffffffffffffffffffffffffffffffffff166323b872dd33308a6040518463ffffffff1660e01b81526004016123f393929190613d22565b6020604051808303816000875af1158015612412573d6000803e3d6000fd5b505050506040513d601f19601f820116820180604052508101906124369190613d85565b5061244b67adc5bd71c18f6d4e60c01b6127ed565b61245f67e13f6499a6129fb060c01b6127ed565b7f000000000000000000000000000000000000000000000000000000000000000073ffffffffffffffffffffffffffffffffffffffff166323b872dd3330896040518463ffffffff1660e01b81526004016124bc93929190613d22565b6020604051808303816000875af11580156124db573d6000803e3d6000fd5b505050506040513d601f19601f820116820180604052508101906124ff9190613d85565b5061251467202cd7f65fb493b560c01b6127ed565b61252867df0c14a673151b3f60c01b6127ed565b600081036125735761254467721314a79a0f66c660c01b6127ed565b61255867dabf8cce52c979f860c01b6127ed565b61256c868861256791906139c6565b612ba5565b945061266c565b61258767927c8d6e1c25b2fb60c01b6127ed565b61259b67bb1483607a3ac11b60c01b6127ed565b6125af67d735a3be96c1a6a560c01b6127ed565b60008382896125be91906139c6565b6125c89190613a37565b90506125de679cdad92435362deb60c01b6127ed565b6125f26751049d63271e712e60c01b6127ed565b600083838961260191906139c6565b61260b9190613a37565b905061262167c3ebc4f597f9087260c01b6127ed565b8082108061263f575061263e673f201f2aa7a6735960c01b61299e565b5b801561265b575061265a678f0843974f0c6e9c60c01b612993565b5b6126655780612667565b815b965050505b61268067d685db7c800c395e60c01b6127ed565b61269467bbdba08a579b155160c01b6127ed565b6126a867acee18ee9e659b5460c01b6127ed565b600085116126eb576040517f08c379a00000000000000000000000000000000000000000000000000000000081526004016126e290614088565b60405180910390fd5b6126ff6754efc8b6d32534e260c01b6127ed565b61271367f3cf70dacffdd1c660c01b6127ed565b6127276757e0d95a20cb8f6960c01b6127ed565b6127318986612da2565b61274567e2a24f875b7d0d4c60c01b6127ed565b61275967a9a723a28191bb2960c01b6127ed565b6127616129a5565b61277567517ea2a7664f019f60c01b6127ed565b612789677c323e9fa67b947b60c01b6127ed565b3373ffffffffffffffffffffffffffffffffffffffff167fbeb3885786d637a474cbc287c0a44587231633a077f0bd30354d5a4b18996fce8888886040516127d393929190613854565b60405180910390a250505050985098509895505050505050565b50565b600033905090565b6128058383836001612e24565b505050565b60006128168484611d47565b90507fffffffffffffffffffffffffffffffffffffffffffffffffffffffffffffffff8110156128995781811015612889578281836040517ffb8f41b2000000000000000000000000000000000000000000000000000000008152600401612880939291906140a8565b60405180910390fd5b61289884848484036000612e24565b5b50505050565b600073ffffffffffffffffffffffffffffffffffffffff168373ffffffffffffffffffffffffffffffffffffffff16036129115760006040517f96c6fd1e00000000000000000000000000000000000000000000000000000000815260040161290891906140df565b60405180910390fd5b600073ffffffffffffffffffffffffffffffffffffffff168273ffffffffffffffffffffffffffffffffffffffff16036129835760006040517fec442f0500000000000000000000000000000000000000000000000000000000815260040161297a91906140df565b60405180910390fd5b61298e838383612ffb565b505050565b600060019050919050565b6000919050565b6129b967f1f0f753eeeb6eb760c01b6127ed565b6129cd6743f3df35b1c0bc7060c01b6127ed565b7f000000000000000000000000000000000000000000000000000000000000000073ffffffffffffffffffffffffffffffffffffffff166370a08231306040518263ffffffff1660e01b8152600401612a2691906140df565b602060405180830381865afa158015612a43573d6000803e3d6000fd5b505050506040513d601f19601f82011682018060405250810190612a67919061410f565b600581905550612a816780be76bc0f5cfa3260c01b6127ed565b7f000000000000000000000000000000000000000000000000000000000000000073ffffffffffffffffffffffffffffffffffffffff166370a08231306040518263ffffffff1660e01b8152600401612ada91906140df565b602060405180830381865afa158015612af7573d6000803e3d6000fd5b505050506040513d601f19601f82011682018060405250810190612b1b919061410f565b600681905550565b600073ffffffffffffffffffffffffffffffffffffffff168273ffffffffffffffffffffffffffffffffffffffff1603612b955760006040517f96c6fd1e000000000000000000000000000000000000000000000000000000008152600401612b8c91906140df565b60405180910390fd5b612ba182600083612ffb565b5050565b6000612bbb6795fa7282d01bfc2160c01b6127ed565b612bcf6707ea79d21698617260c01b6127ed565b612be36778ba2e3d31fa6cff60c01b6127ed565b60008203612c1c57612bff67094d3f3b32f73aa760c01b6127ed565b612c13672f604ea6df85caa460c01b6127ed565b60009050612d9d565b612c3067408309fd13a3171f60c01b6127ed565b612c4467efd501168689f05160c01b6127ed565b612c5867f73bb435daa7505760c01b6127ed565b60006001600284612c699190613a37565b612c739190613992565b9050612c8967a6a0db82554c0cd460c01b6127ed565b612c9d67f4eacef54d9ebd2660c01b6127ed565b612cb167a315accf791cfa5160c01b6127ed565b5b600115612d9b57612ccd67874bde233b6a89b260c01b6127ed565b612ce16764966c59303031ed60c01b6127ed565b60006002828581612cf557612cf4613a08565b5b04830181612d0657612d05613a08565b5b049050612d1d6714ecbab3b0a54f8560c01b6127ed565b612d316749036ce7d2aef68760c01b6127ed565b818103612d6a57612d4c679091e975ea9f59a060c01b6127ed565b612d60672a48c782cfcff17a60c01b6127ed565b8192505050612d9d565b612d7e6750de48a3168731c260c01b6127ed565b612d9267eea9e5ccf54caf0f60c01b6127ed565b80915050612cb2565b505b919050565b600073ffffffffffffffffffffffffffffffffffffffff168273ffffffffffffffffffffffffffffffffffffffff1603612e145760006040517fec442f05000000000000000000000000000000000000000000000000000000008152600401612e0b91906140df565b60405180910390fd5b612e2060008383612ffb565b5050565b600073ffffffffffffffffffffffffffffffffffffffff168473ffffffffffffffffffffffffffffffffffffffff1603612e965760006040517fe602df05000000000000000000000000000000000000000000000000000000008152600401612e8d91906140df565b60405180910390fd5b600073ffffffffffffffffffffffffffffffffffffffff168373ffffffffffffffffffffffffffffffffffffffff1603612f085760006040517f94280d62000000000000000000000000000000000000000000000000000000008152600401612eff91906140df565b60405180910390fd5b81600160008673ffffffffffffffffffffffffffffffffffffffff1673ffffffffffffffffffffffffffffffffffffffff16815260200190815260200160002060008573ffffffffffffffffffffffffffffffffffffffff1673ffffffffffffffffffffffffffffffffffffffff168152602001908152602001600020819055508015612ff5578273ffffffffffffffffffffffffffffffffffffffff168473ffffffffffffffffffffffffffffffffffffffff167f8c5be1e5ebec7d5bd14f71427d1e84f3dd0314c0f7b2291e5b200ac8c7c3b92584604051612fec91906132c2565b60405180910390a35b50505050565b600073ffffffffffffffffffffffffffffffffffffffff168373ffffffffffffffffffffffffffffffffffffffff160361304d5780600260008282546130419190613992565b92505081905550613120565b60008060008573ffffffffffffffffffffffffffffffffffffffff1673ffffffffffffffffffffffffffffffffffffffff168152602001908152602001600020549050818110156130d9578381836040517fe450d38c0000000000000000000000000000000000000000000000000000000081526004016130d0939291906140a8565b60405180910390fd5b8181036000808673ffffffffffffffffffffffffffffffffffffffff1673ffffffffffffffffffffffffffffffffffffffff16815260200190815260200160002081905550505b600073ffffffffffffffffffffffffffffffffffffffff168273ffffffffffffffffffffffffffffffffffffffff160361316957806002600082825403925050819055506131b6565b806000808473ffffffffffffffffffffffffffffffffffffffff1673ffffffffffffffffffffffffffffffffffffffff168152602001908152602001600020600082825401925050819055505b8173ffffffffffffffffffffffffffffffffffffffff168373ffffffffffffffffffffffffffffffffffffffff167fddf252ad1be2c89b69c2b068fc378daa952ba7f163c4a11628f55a4df523b3ef8360405161321391906132c2565b60405180910390a3505050565b600080fd5b600080fd5b6000819050919050565b61323d8161322a565b811461324857600080fd5b50565b60008135905061325a81613234565b92915050565b60008060006060848603121561327957613278613220565b5b60006132878682870161324b565b93505060206132988682870161324b565b92505060406132a98682870161324b565b9150509250925092565b6132bc8161322a565b82525050565b60006020820190506132d760008301846132b3565b92915050565b600081519050919050565b600082825260208201905092915050565b60005b838110156133175780820151818401526020810190506132fc565b60008484015250505050565b6000601f19601f8301169050919050565b600061333f826132dd565b61334981856132e8565b93506133598185602086016132f9565b61336281613323565b840191505092915050565b600060208201905081810360008301526133878184613334565b905092915050565b600073ffffffffffffffffffffffffffffffffffffffff82169050919050565b60006133ba8261338f565b9050919050565b6133ca816133af565b81146133d557600080fd5b50565b6000813590506133e7816133c1565b92915050565b6000806040838503121561340457613403613220565b5b6000613412858286016133d8565b92505060206134238582860161324b565b9150509250929050565b60008115159050919050565b6134428161342d565b82525050565b600060208201905061345d6000830184613439565b92915050565b6000819050919050565b600061348861348361347e8461338f565b613463565b61338f565b9050919050565b600061349a8261346d565b9050919050565b60006134ac8261348f565b9050919050565b6134bc816134a1565b82525050565b60006020820190506134d760008301846134b3565b92915050565b6000806000606084860312156134f6576134f5613220565b5b6000613504868287016133d8565b9350506020613515868287016133d8565b92505060406135268682870161324b565b9150509250925092565b600060ff82169050919050565b61354681613530565b82525050565b6000602082019050613561600083018461353d565b92915050565b600080fd5b600080fd5b600080fd5b60008083601f84011261358c5761358b613567565b5b8235905067ffffffffffffffff8111156135a9576135a861356c565b5b6020830191508360208202830111156135c5576135c4613571565b5b9250929050565b60008060008060008060a087890312156135e9576135e8613220565b5b60006135f789828a0161324b565b965050602061360889828a0161324b565b955050604087013567ffffffffffffffff81111561362957613628613225565b5b61363589828a01613576565b9450945050606061364889828a016133d8565b925050608061365989828a0161324b565b9150509295509295509295565b60006020828403121561367c5761367b613220565b5b600061368a848285016133d8565b91505092915050565b600080604083850312156136aa576136a9613220565b5b60006136b8858286016133d8565b92505060206136c9858286016133d8565b9150509250929050565b600080600080600080600060e0888a0312156136f2576136f1613220565b5b60006137008a828b016133d8565b97505060206137118a828b016133d8565b96505060406137228a828b0161324b565b95505060606137338a828b0161324b565b94505060806137448a828b0161324b565b93505060a06137558a828b016133d8565b92505060c06137668a828b0161324b565b91505092959891949750929550565b600060408201905061378a60008301856132b3565b61379760208301846132b3565b9392505050565b600080600080600080600080610100898b0312156137bf576137be613220565b5b60006137cd8b828c016133d8565b98505060206137de8b828c016133d8565b97505060406137ef8b828c0161324b565b96505060606138008b828c0161324b565b95505060806138118b828c0161324b565b94505060a06138228b828c0161324b565b93505060c06138338b828c016133d8565b92505060e06138448b828c0161324b565b9150509295985092959890939650565b600060608201905061386960008301866132b3565b61387660208301856132b3565b61388360408301846132b3565b949350505050565b7f4552525f5a45524f5f494e505554000000000000000000000000000000000000600082015250565b60006138c1600e836132e8565b91506138cc8261388b565b602082019050919050565b600060208201905081810360008301526138f0816138b4565b9050919050565b7f4e4f5f4c49515549444954590000000000000000000000000000000000000000600082015250565b600061392d600c836132e8565b9150613938826138f7565b602082019050919050565b6000602082019050818103600083015261395c81613920565b9050919050565b7f4e487b7100000000000000000000000000000000000000000000000000000000600052601160045260246000fd5b600061399d8261322a565b91506139a88361322a565b92508282019050808211156139c0576139bf613963565b5b92915050565b60006139d18261322a565b91506139dc8361322a565b92508282026139ea8161322a565b91508282048414831517613a0157613a00613963565b5b5092915050565b7f4e487b7100000000000000000000000000000000000000000000000000000000600052601260045260246000fd5b6000613a428261322a565b9150613a4d8361322a565b925082613a5d57613a5c613a08565b5b828204905092915050565b7f4e487b7100000000000000000000000000000000000000000000000000000000600052602260045260246000fd5b60006002820490506001821680613aaf57607f821691505b602082108103613ac257613ac1613a68565b5b50919050565b7f4558504952454400000000000000000000000000000000000000000000000000600082015250565b6000613afe6007836132e8565b9150613b0982613ac8565b602082019050919050565b60006020820190508181036000830152613b2d81613af1565b9050919050565b7f4e487b7100000000000000000000000000000000000000000000000000000000600052603260045260246000fd5b7f494e56414c49445f504154480000000000000000000000000000000000000000600082015250565b6000613b99600c836132e8565b9150613ba482613b63565b602082019050919050565b60006020820190508181036000830152613bc881613b8c565b9050919050565b7f494e56414c49445f494e5f544f4b454e00000000000000000000000000000000600082015250565b6000613c056010836132e8565b9150613c1082613bcf565b602082019050919050565b60006020820190508181036000830152613c3481613bf8565b9050919050565b7f494e56414c49445f4f55545f544f4b454e000000000000000000000000000000600082015250565b6000613c716011836132e8565b9150613c7c82613c3b565b602082019050919050565b60006020820190508181036000830152613ca081613c64565b9050919050565b7f4552525f4c4f575f4f5554505554000000000000000000000000000000000000600082015250565b6000613cdd600e836132e8565b9150613ce882613ca7565b602082019050919050565b60006020820190508181036000830152613d0c81613cd0565b9050919050565b613d1c816133af565b82525050565b6000606082019050613d376000830186613d13565b613d446020830185613d13565b613d5160408301846132b3565b949350505050565b613d628161342d565b8114613d6d57600080fd5b50565b600081519050613d7f81613d59565b92915050565b600060208284031215613d9b57613d9a613220565b5b6000613da984828501613d70565b91505092915050565b6000604082019050613dc76000830185613d13565b613dd460208301846132b3565b9392505050565b6000608082019050613df06000830187613d13565b613dfd6020830186613d13565b613e0a60408301856132b3565b613e1760608301846132b3565b95945050505050565b7f494e56414c49445f544f4b454e53000000000000000000000000000000000000600082015250565b6000613e56600e836132e8565b9150613e6182613e20565b602082019050919050565b60006020820190508181036000830152613e8581613e49565b9050919050565b7f4552525f4c505f42414c414e4345000000000000000000000000000000000000600082015250565b6000613ec2600e836132e8565b9150613ecd82613e8c565b602082019050919050565b60006020820190508181036000830152613ef181613eb5565b9050919050565b7f4552525f494e5355465f41000000000000000000000000000000000000000000600082015250565b6000613f2e600b836132e8565b9150613f3982613ef8565b602082019050919050565b60006020820190508181036000830152613f5d81613f21565b9050919050565b7f4552525f494e5355465f42000000000000000000000000000000000000000000600082015250565b6000613f9a600b836132e8565b9150613fa582613f64565b602082019050919050565b60006020820190508181036000830152613fc981613f8d565b9050919050565b7f4552525f494e5355465f4c495100000000000000000000000000000000000000600082015250565b6000614006600d836132e8565b915061401182613fd0565b602082019050919050565b6000602082019050818103600083015261403581613ff9565b9050919050565b7f4552525f4d494e545f5a45524f00000000000000000000000000000000000000600082015250565b6000614072600d836132e8565b915061407d8261403c565b602082019050919050565b600060208201905081810360008301526140a181614065565b9050919050565b60006060820190506140bd6000830186613d13565b6140ca60208301856132b3565b6140d760408301846132b3565b949350505050565b60006020820190506140f46000830184613d13565b92915050565b60008151905061410981613234565b92915050565b60006020828403121561412557614124613220565b5b6000614133848285016140fa565b9150509291505056fea264697066735822122020ada3c501535350e2137d920b2fac2c0ea5e0a944b21ad9a29a8a1227a0eceb64736f6c63430008180033",
  "linkReferences": {},
  "deployedLinkReferences": {}
}