{
  "_format": "hh-sol-artifact-1",
  "contractName": "TestToken",
  "sourceName": "contracts/TestToken.sol",
  "abi": [
    {
      "inputs": [
        {
          "internalType": "string",
          "name": "name",
          "type": "string"
        },
        {
          "internalType": "string",
          "name": "symbol",
          "type": "string"
        }
      ],
      "stateMutability": "nonpayable",
      "type": "constructor"
    },
    {
      "inputs": [
        {
          "internalType": "address",
          "name": "spender",
          "type": "address"
        },
        {
          "internalType": "uint256",
          "name": "allowance",
          "type": "uint256"
        },
        {
          "internalType": "uint256",
          "name": "needed",
          "type": "uint256"
        }
      ],
      "name": "ERC20InsufficientAllowance",
      "type": "error"
    },
    {
      "inputs": [
        {
          "internalType": "address",
          "name": "sender",
          "type": "address"
        },
        {
          "internalType": "uint256",
          "name": "balance",
          "type": "uint256"
        },
        {
          "internalType": "uint256",
          "name": "needed",
          "type": "uint256"
        }
      ],
      "name": "ERC20InsufficientBalance",
      "type": "error"
    },
    {
      "inputs": [
        {
          "internalType": "address",
          "name": "approver",
          "type": "address"
        }
      ],
      "name": "ERC20InvalidApprover",
      "type": "error"
    },
    {
      "inputs": [
        {
          "internalType": "address",
          "name": "receiver",
          "type": "address"
        }
      ],
      "name": "ERC20InvalidReceiver",
      "type": "error"
    },
    {
      "inputs": [
        {
          "internalType": "address",
          "name": "sender",
          "type": "address"
        }
      ],
      "name": "ERC20InvalidSender",
      "type": "error"
    },
    {
      "inputs": [
        {
          "internalType": "address",
          "name": "spender",
          "type": "address"
        }
      ],
      "name": "ERC20InvalidSpender",
      "type": "error"
    },
    {
      "inputs": [
        {
          "internalType": "address",
          "name": "owner",
          "type": "address"
        }
      ],
      "name": "OwnableInvalidOwner",
      "type": "error"
    },
    {
      "inputs": [
        {
          "internalType": "address",
          "name": "account",
          "type": "address"
        }
      ],
      "name": "OwnableUnauthorizedAccount",
      "type": "error"
    },
    {
      "anonymous": false,
      "inputs": [
        {
          "indexed": true,
          "internalType": "address",
          "name": "owner",
          "type": "address"
        },
        {
          "indexed": true,
          "internalType": "address",
          "name": "spender",
          "type": "address"
        },
        {
          "indexed": false,
          "internalType": "uint256",
          "name": "value",
          "type": "uint256"
        }
      ],
      "name": "Approval",
      "type": "event"
    },
    {
      "anonymous": false,
      "inputs": [
        {
          "indexed": true,
          "internalType": "address",
          "name": "previousOwner",
          "type": "address"
        },
        {
          "indexed": true,
          "internalType": "address",
          "name": "newOwner",
          "type": "address"
        }
      ],
      "name": "OwnershipTransferred",
      "type": "event"
    },
    {
      "anonymous": false,
      "inputs": [
        {
          "indexed": true,
          "internalType": "address",
          "name": "recipient",
          "type": "address"
        },
        {
          "indexed": false,
          "internalType": "uint256",
          "name": "amount",
          "type": "uint256"
        }
      ],
      "name": "TokensClaimed",
      "type": "event"
    },
    {
      "anonymous": false,
      "inputs": [
        {
          "indexed": true,
          "internalType": "address",
          "name": "from",
          "type": "address"
        },
        {
          "indexed": true,
          "internalType": "address",
          "name": "to",
          "type": "address"
        },
        {
          "indexed": false,
          "internalType": "uint256",
          "name": "value",
          "type": "uint256"
        }
      ],
      "name": "Transfer",
      "type": "event"
    },
    {
      "inputs": [
        {
          "internalType": "address",
          "name": "owner",
          "type": "address"
        },
        {
          "internalType": "address",
          "name": "spender",
          "type": "address"
        }
      ],
      "name": "allowance",
      "outputs": [
        {
          "internalType": "uint256",
          "name": "",
          "type": "uint256"
        }
      ],
      "stateMutability": "view",
      "type": "function"
    },
    {
      "inputs": [
        {
          "internalType": "address",
          "name": "spender",
          "type": "address"
        },
        {
          "internalType": "uint256",
          "name": "value",
          "type": "uint256"
        }
      ],
      "name": "approve",
      "outputs": [
        {
          "internalType": "bool",
          "name": "",
          "type": "bool"
        }
      ],
      "stateMutability": "nonpayable",
      "type": "function"
    },
    {
      "inputs": [
        {
          "internalType": "address",
          "name": "account",
          "type": "address"
        }
      ],
      "name": "balanceOf",
      "outputs": [
        {
          "internalType": "uint256",
          "name": "",
          "type": "uint256"
        }
      ],
      "stateMutability": "view",
      "type": "function"
    },
    {
      "inputs": [],
      "name": "claimTokens",
      "outputs": [],
      "stateMutability": "nonpayable",
      "type": "function"
    },
    {
      "inputs": [],
      "name": "decimals",
      "outputs": [
        {
          "internalType": "uint8",
          "name": "",
          "type": "uint8"
        }
      ],
      "stateMutability": "view",
      "type": "function"
    },
    {
      "inputs": [
        {
          "internalType": "address",
          "name": "to",
          "type": "address"
        },
        {
          "internalType": "uint256",
          "name": "amount",
          "type": "uint256"
        }
      ],
      "name": "mint",
      "outputs": [],
      "stateMutability": "nonpayable",
      "type": "function"
    },
    {
      "inputs": [],
      "name": "name",
      "outputs": [
        {
          "internalType": "string",
          "name": "",
          "type": "string"
        }
      ],
      "stateMutability": "view",
      "type": "function"
    },
    {
      "inputs": [
        {
          "internalType": "address",
          "name": "",
          "type": "address"
        }
      ],
      "name": "nextClaimTime",
      "outputs": [
        {
          "internalType": "uint256",
          "name": "",
          "type": "uint256"
        }
      ],
      "stateMutability": "view",
      "type": "function"
    },
    {
      "inputs": [],
      "name": "owner",
      "outputs": [
        {
          "internalType": "address",
          "name": "",
          "type": "address"
        }
      ],
      "stateMutability": "view",
      "type": "function"
    },
    {
      "inputs": [],
      "name": "renounceOwnership",
      "outputs": [],
      "stateMutability": "nonpayable",
      "type": "function"
    },
    {
      "inputs": [],
      "name": "symbol",
      "outputs": [
        {
          "internalType": "string",
          "name": "",
          "type": "string"
        }
      ],
      "stateMutability": "view",
      "type": "function"
    },
    {
      "inputs": [],
      "name": "totalSupply",
      "outputs": [
        {
          "internalType": "uint256",
          "name": "",
          "type": "uint256"
        }
      ],
      "stateMutability": "view",
      "type": "function"
    },
    {
      "inputs": [
        {
          "internalType": "address",
          "name": "to",
          "type": "address"
        },
        {
          "internalType": "uint256",
          "name": "value",
          "type": "uint256"
        }
      ],
      "name": "transfer",
      "outputs": [
        {
          "internalType": "bool",
          "name": "",
          "type": "bool"
        }
      ],
      "stateMutability": "nonpayable",
      "type": "function"
    },
    {
      "inputs": [
        {
          "internalType": "address",
          "name": "from",
          "type": "address"
        },
        {
          "internalType": "address",
          "name": "to",
          "type": "address"
        },
        {
          "internalType": "uint256",
          "name": "value",
          "type": "uint256"
        }
      ],
      "name": "transferFrom",
      "outputs": [
        {
          "internalType": "bool",
          "name": "",
          "type": "bool"
        }
      ],
      "stateMutability": "nonpayable",
      "type": "function"
    },
    {
      "inputs": [
        {
          "internalType": "address",
          "name": "newOwner",
          "type": "address"
        }
      ],
      "name": "transferOwnership",
      "outputs": [],
      "stateMutability": "nonpayable",
      "type": "function"
    }
  ],
  "bytecode": "0x60806040523480156200001157600080fd5b5060405162001ca338038062001ca3833981810160405281019062000037919062000367565b33828281600390816200004b919062000637565b5080600490816200005d919062000637565b505050600073ffffffffffffffffffffffffffffffffffffffff168173ffffffffffffffffffffffffffffffffffffffff1603620000d55760006040517f1e4fbdf7000000000000000000000000000000000000000000000000000000008152600401620000cc919062000763565b60405180910390fd5b620000e6816200010b60201b60201c565b50620001036710a48c4e8b159f9c60c01b620001d160201b60201c565b505062000780565b6000600560009054906101000a900473ffffffffffffffffffffffffffffffffffffffff16905081600560006101000a81548173ffffffffffffffffffffffffffffffffffffffff021916908373ffffffffffffffffffffffffffffffffffffffff1602179055508173ffffffffffffffffffffffffffffffffffffffff168173ffffffffffffffffffffffffffffffffffffffff167f8be0079c531659141344cd1fd0a4f28419497f9722a3daafe3b4186f6b6457e060405160405180910390a35050565b50565b6000604051905090565b600080fd5b600080fd5b600080fd5b600080fd5b6000601f19601f8301169050919050565b7f4e487b7100000000000000000000000000000000000000000000000000000000600052604160045260246000fd5b6200023d82620001f2565b810181811067ffffffffffffffff821117156200025f576200025e62000203565b5b80604052505050565b600062000274620001d4565b905062000282828262000232565b919050565b600067ffffffffffffffff821115620002a557620002a462000203565b5b620002b082620001f2565b9050602081019050919050565b60005b83811015620002dd578082015181840152602081019050620002c0565b60008484015250505050565b600062000300620002fa8462000287565b62000268565b9050828152602081018484840111156200031f576200031e620001ed565b5b6200032c848285620002bd565b509392505050565b600082601f8301126200034c576200034b620001e8565b5b81516200035e848260208601620002e9565b91505092915050565b60008060408385031215620003815762000380620001de565b5b600083015167ffffffffffffffff811115620003a257620003a1620001e3565b5b620003b08582860162000334565b925050602083015167ffffffffffffffff811115620003d457620003d3620001e3565b5b620003e28582860162000334565b9150509250929050565b600081519050919050565b7f4e487b7100000000000000000000000000000000000000000000000000000000600052602260045260246000fd5b600060028204905060018216806200043f57607f821691505b602082108103620004555762000454620003f7565b5b50919050565b60008190508160005260206000209050919050565b60006020601f8301049050919050565b600082821b905092915050565b600060088302620004bf7fffffffffffffffffffffffffffffffffffffffffffffffffffffffffffffffff8262000480565b620004cb868362000480565b95508019841693508086168417925050509392505050565b6000819050919050565b6000819050919050565b600062000518620005126200050c84620004e3565b620004ed565b620004e3565b9050919050565b6000819050919050565b6200053483620004f7565b6200054c62000543826200051f565b8484546200048d565b825550505050565b600090565b6200056362000554565b6200057081848462000529565b505050565b5b8181101562000598576200058c60008262000559565b60018101905062000576565b5050565b601f821115620005e757620005b1816200045b565b620005bc8462000470565b81016020851015620005cc578190505b620005e4620005db8562000470565b83018262000575565b50505b505050565b600082821c905092915050565b60006200060c60001984600802620005ec565b1980831691505092915050565b6000620006278383620005f9565b9150826002028217905092915050565b6200064282620003ec565b67ffffffffffffffff8111156200065e576200065d62000203565b5b6200066a825462000426565b620006778282856200059c565b600060209050601f831160018114620006af57600084156200069a578287015190505b620006a6858262000619565b86555062000716565b601f198416620006bf866200045b565b60005b82811015620006e957848901518255600182019150602085019450602081019050620006c2565b8683101562000709578489015162000705601f891682620005f9565b8355505b6001600288020188555050505b505050505050565b600073ffffffffffffffffffffffffffffffffffffffff82169050919050565b60006200074b826200071e565b9050919050565b6200075d816200073e565b82525050565b60006020820190506200077a600083018462000752565b92915050565b61151380620007906000396000f3fe608060405234801561001057600080fd5b50600436106100f55760003560e01c806370a082311161009757806395d89b411161006657806395d89b4114610262578063a9059cbb14610280578063dd62ed3e146102b0578063f2fde38b146102e0576100f5565b806370a08231146101da57806370f23da71461020a578063715018a61461023a5780638da5cb5b14610244576100f5565b806323b872dd116100d357806323b872dd14610166578063313ce5671461019657806340c10f19146101b457806348c54b9d146101d0576100f5565b806306fdde03146100fa578063095ea7b31461011857806318160ddd14610148575b600080fd5b6101026102fc565b60405161010f91906110fb565b60405180910390f35b610132600480360381019061012d91906111b6565b61038e565b60405161013f9190611211565b60405180910390f35b6101506103b1565b60405161015d919061123b565b60405180910390f35b610180600480360381019061017b9190611256565b6103bb565b60405161018d9190611211565b60405180910390f35b61019e6103ea565b6040516101ab91906112c5565b60405180910390f35b6101ce60048036038101906101c991906111b6565b6103f3565b005b6101d861046d565b005b6101f460048036038101906101ef91906112e0565b61069a565b604051610201919061123b565b60405180910390f35b610224600480360381019061021f91906112e0565b6106e2565b604051610231919061123b565b60405180910390f35b6102426106fa565b005b61024c61070e565b604051610259919061131c565b60405180910390f35b61026a610738565b60405161027791906110fb565b60405180910390f35b61029a600480360381019061029591906111b6565b6107ca565b6040516102a79190611211565b60405180910390f35b6102ca60048036038101906102c59190611337565b6107ed565b6040516102d7919061123b565b60405180910390f35b6102fa60048036038101906102f591906112e0565b610874565b005b60606003805461030b906113a6565b80601f0160208091040260200160405190810160405280929190818152602001828054610337906113a6565b80156103845780601f1061035957610100808354040283529160200191610384565b820191906000526020600020905b81548152906001019060200180831161036757829003601f168201915b5050505050905090565b6000806103996108fa565b90506103a6818585610902565b600191505092915050565b6000600254905090565b6000806103c66108fa565b90506103d3858285610914565b6103de8585856109a9565b60019150509392505050565b60006012905090565b610407679a39a6ec2951a28e60c01b610a9d565b61040f610aa0565b61042367d26714897c04747360c01b610a9d565b610437675690129445c6a5f160c01b610a9d565b61044b67fb406dcd1c9c608f60c01b610a9d565b61045f6747208a7a283cf55860c01b610a9d565b6104698282610b27565b5050565b61048167017eced03f44fbb660c01b610a9d565b610495678a5f65e911371c6360c01b610a9d565b6104a967dd9801f97512696f60c01b610a9d565b6104bd67e1631b16f02b06c360c01b610a9d565b600660003373ffffffffffffffffffffffffffffffffffffffff1673ffffffffffffffffffffffffffffffffffffffff1681526020019081526020016000205442101561053f576040517f08c379a000000000000000000000000000000000000000000000000000000000815260040161053690611423565b60405180910390fd5b61055367441a2436d5c6cc0560c01b610a9d565b610567676703d18c90a8c40860c01b610a9d565b62015180426105769190611472565b600660003373ffffffffffffffffffffffffffffffffffffffff1673ffffffffffffffffffffffffffffffffffffffff168152602001908152602001600020819055506105cd671019947f43d689c260c01b610a9d565b6105e16799d0307d8fda872860c01b610a9d565b600068056bc75e2d631000009050610603670585992f6a0e005c60c01b610a9d565b61061767fa7ff5ebe405d55760c01b610a9d565b6106213382610b27565b61063567262afb8582e5b31660c01b610a9d565b610649675e23255662495f1b60c01b610a9d565b3373ffffffffffffffffffffffffffffffffffffffff167f896e034966eaaf1adc54acc0f257056febbd300c9e47182cf761982cf1f5e4308260405161068f919061123b565b60405180910390a250565b60008060008373ffffffffffffffffffffffffffffffffffffffff1673ffffffffffffffffffffffffffffffffffffffff168152602001908152602001600020549050919050565b60066020528060005260406000206000915090505481565b610702610aa0565b61070c6000610ba9565b565b6000600560009054906101000a900473ffffffffffffffffffffffffffffffffffffffff16905090565b606060048054610747906113a6565b80601f0160208091040260200160405190810160405280929190818152602001828054610773906113a6565b80156107c05780601f10610795576101008083540402835291602001916107c0565b820191906000526020600020905b8154815290600101906020018083116107a357829003601f168201915b5050505050905090565b6000806107d56108fa565b90506107e28185856109a9565b600191505092915050565b6000600160008473ffffffffffffffffffffffffffffffffffffffff1673ffffffffffffffffffffffffffffffffffffffff16815260200190815260200160002060008373ffffffffffffffffffffffffffffffffffffffff1673ffffffffffffffffffffffffffffffffffffffff16815260200190815260200160002054905092915050565b61087c610aa0565b600073ffffffffffffffffffffffffffffffffffffffff168173ffffffffffffffffffffffffffffffffffffffff16036108ee5760006040517f1e4fbdf70000000000000000000000000000000000000000000000000000000081526004016108e5919061131c565b60405180910390fd5b6108f781610ba9565b50565b600033905090565b61090f8383836001610c6f565b505050565b600061092084846107ed565b90507fffffffffffffffffffffffffffffffffffffffffffffffffffffffffffffffff8110156109a35781811015610993578281836040517ffb8f41b200000000000000000000000000000000000000000000000000000000815260040161098a939291906114a6565b60405180910390fd5b6109a284848484036000610c6f565b5b50505050565b600073ffffffffffffffffffffffffffffffffffffffff168373ffffffffffffffffffffffffffffffffffffffff1603610a1b5760006040517f96c6fd1e000000000000000000000000000000000000000000000000000000008152600401610a12919061131c565b60405180910390fd5b600073ffffffffffffffffffffffffffffffffffffffff168273ffffffffffffffffffffffffffffffffffffffff1603610a8d5760006040517fec442f05000000000000000000000000000000000000000000000000000000008152600401610a84919061131c565b60405180910390fd5b610a98838383610e46565b505050565b50565b610aa86108fa565b73ffffffffffffffffffffffffffffffffffffffff16610ac661070e565b73ffffffffffffffffffffffffffffffffffffffff1614610b2557610ae96108fa565b6040517f118cdaa7000000000000000000000000000000000000000000000000000000008152600401610b1c919061131c565b60405180910390fd5b565b600073ffffffffffffffffffffffffffffffffffffffff168273ffffffffffffffffffffffffffffffffffffffff1603610b995760006040517fec442f05000000000000000000000000000000000000000000000000000000008152600401610b90919061131c565b60405180910390fd5b610ba560008383610e46565b5050565b6000600560009054906101000a900473ffffffffffffffffffffffffffffffffffffffff16905081600560006101000a81548173ffffffffffffffffffffffffffffffffffffffff021916908373ffffffffffffffffffffffffffffffffffffffff1602179055508173ffffffffffffffffffffffffffffffffffffffff168173ffffffffffffffffffffffffffffffffffffffff167f8be0079c531659141344cd1fd0a4f28419497f9722a3daafe3b4186f6b6457e060405160405180910390a35050565b600073ffffffffffffffffffffffffffffffffffffffff168473ffffffffffffffffffffffffffffffffffffffff1603610ce15760006040517fe602df05000000000000000000000000000000000000000000000000000000008152600401610cd8919061131c565b60405180910390fd5b600073ffffffffffffffffffffffffffffffffffffffff168373ffffffffffffffffffffffffffffffffffffffff1603610d535760006040517f94280d62000000000000000000000000000000000000000000000000000000008152600401610d4a919061131c565b60405180910390fd5b81600160008673ffffffffffffffffffffffffffffffffffffffff1673ffffffffffffffffffffffffffffffffffffffff16815260200190815260200160002060008573ffffffffffffffffffffffffffffffffffffffff1673ffffffffffffffffffffffffffffffffffffffff168152602001908152602001600020819055508015610e40578273ffffffffffffffffffffffffffffffffffffffff168473ffffffffffffffffffffffffffffffffffffffff167f8c5be1e5ebec7d5bd14f71427d1e84f3dd0314c0f7b2291e5b200ac8c7c3b92584604051610e37919061123b565b60405180910390a35b50505050565b600073ffffffffffffffffffffffffffffffffffffffff168373ffffffffffffffffffffffffffffffffffffffff1603610e98578060026000828254610e8c9190611472565b92505081905550610f6b565b60008060008573ffffffffffffffffffffffffffffffffffffffff1673ffffffffffffffffffffffffffffffffffffffff16815260200190815260200160002054905081811015610f24578381836040517fe450d38c000000000000000000000000000000000000000000000000000000008152600401610f1b939291906114a6565b60405180910390fd5b8181036000808673ffffffffffffffffffffffffffffffffffffffff1673ffffffffffffffffffffffffffffffffffffffff16815260200190815260200160002081905550505b600073ffffffffffffffffffffffffffffffffffffffff168273ffffffffffffffffffffffffffffffffffffffff1603610fb45780600260008282540392505081905550611001565b806000808473ffffffffffffffffffffffffffffffffffffffff1673ffffffffffffffffffffffffffffffffffffffff168152602001908152602001600020600082825401925050819055505b8173ffffffffffffffffffffffffffffffffffffffff168373ffffffffffffffffffffffffffffffffffffffff167fddf252ad1be2c89b69c2b068fc378daa952ba7f163c4a11628f55a4df523b3ef8360405161105e919061123b565b60405180910390a3505050565b600081519050919050565b600082825260208201905092915050565b60005b838110156110a557808201518184015260208101905061108a565b60008484015250505050565b6000601f19601f8301169050919050565b60006110cd8261106b565b6110d78185611076565b93506110e7818560208601611087565b6110f0816110b1565b840191505092915050565b6000602082019050818103600083015261111581846110c2565b905092915050565b600080fd5b600073ffffffffffffffffffffffffffffffffffffffff82169050919050565b600061114d82611122565b9050919050565b61115d81611142565b811461116857600080fd5b50565b60008135905061117a81611154565b92915050565b6000819050919050565b61119381611180565b811461119e57600080fd5b50565b6000813590506111b08161118a565b92915050565b600080604083850312156111cd576111cc61111d565b5b60006111db8582860161116b565b92505060206111ec858286016111a1565b9150509250929050565b60008115159050919050565b61120b816111f6565b82525050565b60006020820190506112266000830184611202565b92915050565b61123581611180565b82525050565b6000602082019050611250600083018461122c565b92915050565b60008060006060848603121561126f5761126e61111d565b5b600061127d8682870161116b565b935050602061128e8682870161116b565b925050604061129f868287016111a1565b9150509250925092565b600060ff82169050919050565b6112bf816112a9565b82525050565b60006020820190506112da60008301846112b6565b92915050565b6000602082840312156112f6576112f561111d565b5b60006113048482850161116b565b91505092915050565b61131681611142565b82525050565b6000602082019050611331600083018461130d565b92915050565b6000806040838503121561134e5761134d61111d565b5b600061135c8582860161116b565b925050602061136d8582860161116b565b9150509250929050565b7f4e487b7100000000000000000000000000000000000000000000000000000000600052602260045260246000fd5b600060028204905060018216806113be57607f821691505b6020821081036113d1576113d0611377565b5b50919050565b7f574149545f323448000000000000000000000000000000000000000000000000600082015250565b600061140d600883611076565b9150611418826113d7565b602082019050919050565b6000602082019050818103600083015261143c81611400565b9050919050565b7f4e487b7100000000000000000000000000000000000000000000000000000000600052601160045260246000fd5b600061147d82611180565b915061148883611180565b92508282019050808211156114a05761149f611443565b5b92915050565b60006060820190506114bb600083018661130d565b6114c8602083018561122c565b6114d5604083018461122c565b94935050505056fea2646970667358221220d15f0208560b2433dd5e02c285db6946d87fdf47fe5c596e338e54252008741164736f6c63430008180033",
  "linkReferences": {},
  "deployedLinkReferences": {}
}