{
  "_format": "hh-sol-artifact-1",
  "contractName": "TestToken",
  "sourceName": "contracts/TestToken.sol",
  "abi": [
    {
      "inputs": [
        {
          "internalType": "string",
          "name": "name",
          "type": "string"
        },
        {
          "internalType": "string",
          "name": "symbol",
          "type": "string"
        }
      ],
      "stateMutability": "nonpayable",
      "type": "constructor"
    },
    {
      "inputs": [
        {
          "internalType": "address",
          "name": "spender",
          "type": "address"
        },
        {
          "internalType": "uint256",
          "name": "allowance",
          "type": "uint256"
        },
        {
          "internalType": "uint256",
          "name": "needed",
          "type": "uint256"
        }
      ],
      "name": "ERC20InsufficientAllowance",
      "type": "error"
    },
    {
      "inputs": [
        {
          "internalType": "address",
          "name": "sender",
          "type": "address"
        },
        {
          "internalType": "uint256",
          "name": "balance",
          "type": "uint256"
        },
        {
          "internalType": "uint256",
          "name": "needed",
          "type": "uint256"
        }
      ],
      "name": "ERC20InsufficientBalance",
      "type": "error"
    },
    {
      "inputs": [
        {
          "internalType": "address",
          "name": "approver",
          "type": "address"
        }
      ],
      "name": "ERC20InvalidApprover",
      "type": "error"
    },
    {
      "inputs": [
        {
          "internalType": "address",
          "name": "receiver",
          "type": "address"
        }
      ],
      "name": "ERC20InvalidReceiver",
      "type": "error"
    },
    {
      "inputs": [
        {
          "internalType": "address",
          "name": "sender",
          "type": "address"
        }
      ],
      "name": "ERC20InvalidSender",
      "type": "error"
    },
    {
      "inputs": [
        {
          "internalType": "address",
          "name": "spender",
          "type": "address"
        }
      ],
      "name": "ERC20InvalidSpender",
      "type": "error"
    },
    {
      "inputs": [
        {
          "internalType": "address",
          "name": "owner",
          "type": "address"
        }
      ],
      "name": "OwnableInvalidOwner",
      "type": "error"
    },
    {
      "inputs": [
        {
          "internalType": "address",
          "name": "account",
          "type": "address"
        }
      ],
      "name": "OwnableUnauthorizedAccount",
      "type": "error"
    },
    {
      "anonymous": false,
      "inputs": [
        {
          "indexed": true,
          "internalType": "address",
          "name": "owner",
          "type": "address"
        },
        {
          "indexed": true,
          "internalType": "address",
          "name": "spender",
          "type": "address"
        },
        {
          "indexed": false,
          "internalType": "uint256",
          "name": "value",
          "type": "uint256"
        }
      ],
      "name": "Approval",
      "type": "event"
    },
    {
      "anonymous": false,
      "inputs": [
        {
          "indexed": true,
          "internalType": "address",
          "name": "previousOwner",
          "type": "address"
        },
        {
          "indexed": true,
          "internalType": "address",
          "name": "newOwner",
          "type": "address"
        }
      ],
      "name": "OwnershipTransferred",
      "type": "event"
    },
    {
      "anonymous": false,
      "inputs": [
        {
          "indexed": true,
          "internalType": "address",
          "name": "recipient",
          "type": "address"
        }
      ],
      "name": "TokensClaimed",
      "type": "event"
    },
    {
      "anonymous": false,
      "inputs": [
        {
          "indexed": true,
          "internalType": "address",
          "name": "from",
          "type": "address"
        },
        {
          "indexed": true,
          "internalType": "address",
          "name": "to",
          "type": "address"
        },
        {
          "indexed": false,
          "internalType": "uint256",
          "name": "value",
          "type": "uint256"
        }
      ],
      "name": "Transfer",
      "type": "event"
    },
    {
      "inputs": [],
      "name": "CLAIM_AMOUNT",
      "outputs": [
        {
          "internalType": "uint256",
          "name": "",
          "type": "uint256"
        }
      ],
      "stateMutability": "view",
      "type": "function"
    },
    {
      "inputs": [],
      "name": "COOLDOWN_PERIOD",
      "outputs": [
        {
          "internalType": "uint256",
          "name": "",
          "type": "uint256"
        }
      ],
      "stateMutability": "view",
      "type": "function"
    },
    {
      "inputs": [
        {
          "internalType": "address",
          "name": "owner",
          "type": "address"
        },
        {
          "internalType": "address",
          "name": "spender",
          "type": "address"
        }
      ],
      "name": "allowance",
      "outputs": [
        {
          "internalType": "uint256",
          "name": "",
          "type": "uint256"
        }
      ],
      "stateMutability": "view",
      "type": "function"
    },
    {
      "inputs": [
        {
          "internalType": "address",
          "name": "spender",
          "type": "address"
        },
        {
          "internalType": "uint256",
          "name": "value",
          "type": "uint256"
        }
      ],
      "name": "approve",
      "outputs": [
        {
          "internalType": "bool",
          "name": "",
          "type": "bool"
        }
      ],
      "stateMutability": "nonpayable",
      "type": "function"
    },
    {
      "inputs": [
        {
          "internalType": "address",
          "name": "account",
          "type": "address"
        }
      ],
      "name": "balanceOf",
      "outputs": [
        {
          "internalType": "uint256",
          "name": "",
          "type": "uint256"
        }
      ],
      "stateMutability": "view",
      "type": "function"
    },
    {
      "inputs": [],
      "name": "claimTokens",
      "outputs": [],
      "stateMutability": "nonpayable",
      "type": "function"
    },
    {
      "inputs": [],
      "name": "decimals",
      "outputs": [
        {
          "internalType": "uint8",
          "name": "",
          "type": "uint8"
        }
      ],
      "stateMutability": "view",
      "type": "function"
    },
    {
      "inputs": [
        {
          "internalType": "address",
          "name": "to",
          "type": "address"
        },
        {
          "internalType": "uint256",
          "name": "amount",
          "type": "uint256"
        }
      ],
      "name": "mint",
      "outputs": [],
      "stateMutability": "nonpayable",
      "type": "function"
    },
    {
      "inputs": [],
      "name": "name",
      "outputs": [
        {
          "internalType": "string",
          "name": "",
          "type": "string"
        }
      ],
      "stateMutability": "view",
      "type": "function"
    },
    {
      "inputs": [
        {
          "internalType": "address",
          "name": "",
          "type": "address"
        }
      ],
      "name": "nextClaimTime",
      "outputs": [
        {
          "internalType": "uint32",
          "name": "",
          "type": "uint32"
        }
      ],
      "stateMutability": "view",
      "type": "function"
    },
    {
      "inputs": [],
      "name": "owner",
      "outputs": [
        {
          "internalType": "address",
          "name": "",
          "type": "address"
        }
      ],
      "stateMutability": "view",
      "type": "function"
    },
    {
      "inputs": [],
      "name": "renounceOwnership",
      "outputs": [],
      "stateMutability": "nonpayable",
      "type": "function"
    },
    {
      "inputs": [],
      "name": "symbol",
      "outputs": [
        {
          "internalType": "string",
          "name": "",
          "type": "string"
        }
      ],
      "stateMutability": "view",
      "type": "function"
    },
    {
      "inputs": [],
      "name": "totalSupply",
      "outputs": [
        {
          "internalType": "uint256",
          "name": "",
          "type": "uint256"
        }
      ],
      "stateMutability": "view",
      "type": "function"
    },
    {
      "inputs": [
        {
          "internalType": "address",
          "name": "to",
          "type": "address"
        },
        {
          "internalType": "uint256",
          "name": "value",
          "type": "uint256"
        }
      ],
      "name": "transfer",
      "outputs": [
        {
          "internalType": "bool",
          "name": "",
          "type": "bool"
        }
      ],
      "stateMutability": "nonpayable",
      "type": "function"
    },
    {
      "inputs": [
        {
          "internalType": "address",
          "name": "from",
          "type": "address"
        },
        {
          "internalType": "address",
          "name": "to",
          "type": "address"
        },
        {
          "internalType": "uint256",
          "name": "value",
          "type": "uint256"
        }
      ],
      "name": "transferFrom",
      "outputs": [
        {
          "internalType": "bool",
          "name": "",
          "type": "bool"
        }
      ],
      "stateMutability": "nonpayable",
      "type": "function"
    },
    {
      "inputs": [
        {
          "internalType": "address",
          "name": "newOwner",
          "type": "address"
        }
      ],
      "name": "transferOwnership",
      "outputs": [],
      "stateMutability": "nonpayable",
      "type": "function"
    }
  ],
  "bytecode": "0x60c060405268056bc75e2d631000006080908152506201518060a0908152503480156200002b57600080fd5b5060405162001e1938038062001e19833981810160405281019062000051919062000381565b338282816003908162000065919062000651565b50806004908162000077919062000651565b505050600073ffffffffffffffffffffffffffffffffffffffff168173ffffffffffffffffffffffffffffffffffffffff1603620000ef5760006040517f1e4fbdf7000000000000000000000000000000000000000000000000000000008152600401620000e691906200077d565b60405180910390fd5b62000100816200012560201b60201c565b506200011d678626fc37a176fa0e60c01b620001eb60201b60201c565b50506200079a565b6000600560009054906101000a900473ffffffffffffffffffffffffffffffffffffffff16905081600560006101000a81548173ffffffffffffffffffffffffffffffffffffffff021916908373ffffffffffffffffffffffffffffffffffffffff1602179055508173ffffffffffffffffffffffffffffffffffffffff168173ffffffffffffffffffffffffffffffffffffffff167f8be0079c531659141344cd1fd0a4f28419497f9722a3daafe3b4186f6b6457e060405160405180910390a35050565b50565b6000604051905090565b600080fd5b600080fd5b600080fd5b600080fd5b6000601f19601f8301169050919050565b7f4e487b7100000000000000000000000000000000000000000000000000000000600052604160045260246000fd5b62000257826200020c565b810181811067ffffffffffffffff821117156200027957620002786200021d565b5b80604052505050565b60006200028e620001ee565b90506200029c82826200024c565b919050565b600067ffffffffffffffff821115620002bf57620002be6200021d565b5b620002ca826200020c565b9050602081019050919050565b60005b83811015620002f7578082015181840152602081019050620002da565b60008484015250505050565b60006200031a6200031484620002a1565b62000282565b90508281526020810184848401111562000339576200033862000207565b5b62000346848285620002d7565b509392505050565b600082601f83011262000366576200036562000202565b5b81516200037884826020860162000303565b91505092915050565b600080604083850312156200039b576200039a620001f8565b5b600083015167ffffffffffffffff811115620003bc57620003bb620001fd565b5b620003ca858286016200034e565b925050602083015167ffffffffffffffff811115620003ee57620003ed620001fd565b5b620003fc858286016200034e565b9150509250929050565b600081519050919050565b7f4e487b7100000000000000000000000000000000000000000000000000000000600052602260045260246000fd5b600060028204905060018216806200045957607f821691505b6020821081036200046f576200046e62000411565b5b50919050565b60008190508160005260206000209050919050565b60006020601f8301049050919050565b600082821b905092915050565b600060088302620004d97fffffffffffffffffffffffffffffffffffffffffffffffffffffffffffffffff826200049a565b620004e586836200049a565b95508019841693508086168417925050509392505050565b6000819050919050565b6000819050919050565b6000620005326200052c6200052684620004fd565b62000507565b620004fd565b9050919050565b6000819050919050565b6200054e8362000511565b620005666200055d8262000539565b848454620004a7565b825550505050565b600090565b6200057d6200056e565b6200058a81848462000543565b505050565b5b81811015620005b257620005a660008262000573565b60018101905062000590565b5050565b601f8211156200060157620005cb8162000475565b620005d6846200048a565b81016020851015620005e6578190505b620005fe620005f5856200048a565b8301826200058f565b50505b505050565b600082821c905092915050565b6000620006266000198460080262000606565b1980831691505092915050565b600062000641838362000613565b9150826002028217905092915050565b6200065c8262000406565b67ffffffffffffffff8111156200067857620006776200021d565b5b62000684825462000440565b62000691828285620005b6565b600060209050601f831160018114620006c95760008415620006b4578287015190505b620006c0858262000633565b86555062000730565b601f198416620006d98662000475565b60005b828110156200070357848901518255600182019150602085019450602081019050620006dc565b868310156200072357848901516200071f601f89168262000613565b8355505b6001600288020188555050505b505050505050565b600073ffffffffffffffffffffffffffffffffffffffff82169050919050565b6000620007658262000738565b9050919050565b620007778162000758565b82525050565b60006020820190506200079460008301846200076c565b92915050565b60805160a05161164b620007ce60003960008181610622015261076b01526000818161043e01526106d7015261164b6000f3fe608060405234801561001057600080fd5b506004361061010b5760003560e01c80636e99d52f116100a25780638da5cb5b116100715780638da5cb5b1461029657806395d89b41146102b4578063a9059cbb146102d2578063dd62ed3e14610302578063f2fde38b146103325761010b565b80636e99d52f1461020e57806370a082311461022c57806370f23da71461025c578063715018a61461028c5761010b565b8063270ef385116100de578063270ef385146101ac578063313ce567146101ca57806340c10f19146101e857806348c54b9d146102045761010b565b806306fdde0314610110578063095ea7b31461012e57806318160ddd1461015e57806323b872dd1461017c575b600080fd5b61011861034e565b60405161012591906111f9565b60405180910390f35b610148600480360381019061014391906112b4565b6103e0565b604051610155919061130f565b60405180910390f35b610166610403565b6040516101739190611339565b60405180910390f35b61019660048036038101906101919190611354565b61040d565b6040516101a3919061130f565b60405180910390f35b6101b461043c565b6040516101c19190611339565b60405180910390f35b6101d2610460565b6040516101df91906113c3565b60405180910390f35b61020260048036038101906101fd91906112b4565b610469565b005b61020c6104e3565b005b610216610769565b6040516102239190611339565b60405180910390f35b610246600480360381019061024191906113de565b61078d565b6040516102539190611339565b60405180910390f35b610276600480360381019061027191906113de565b6107d5565b604051610283919061142a565b60405180910390f35b6102946107f8565b005b61029e61080c565b6040516102ab9190611454565b60405180910390f35b6102bc610836565b6040516102c991906111f9565b60405180910390f35b6102ec60048036038101906102e791906112b4565b6108c8565b6040516102f9919061130f565b60405180910390f35b61031c6004803603810190610317919061146f565b6108eb565b6040516103299190611339565b60405180910390f35b61034c600480360381019061034791906113de565b610972565b005b60606003805461035d906114de565b80601f0160208091040260200160405190810160405280929190818152602001828054610389906114de565b80156103d65780601f106103ab576101008083540402835291602001916103d6565b820191906000526020600020905b8154815290600101906020018083116103b957829003601f168201915b5050505050905090565b6000806103eb6109f8565b90506103f8818585610a00565b600191505092915050565b6000600254905090565b6000806104186109f8565b9050610425858285610a12565b610430858585610aa7565b60019150509392505050565b7f000000000000000000000000000000000000000000000000000000000000000081565b60006012905090565b61047d67bef8ec790d48da3e60c01b610b9b565b610485610b9e565b6104996764868f959eb570d160c01b610b9b565b6104ad675976fa883ebc388e60c01b610b9b565b6104c167fc2a32653ed16a4160c01b610b9b565b6104d5677dc80cc0c94a133d60c01b610b9b565b6104df8282610c25565b5050565b6104f7672d5f4d5f40156ada60c01b610b9b565b61050b67823245c12c1f7dce60c01b610b9b565b61051f6783a1ae9949b83c7960c01b610b9b565b6000339050610538673db7dc9064d543d560c01b610b9b565b61054c6710a48c4e8b159f9c60c01b610b9b565b61056067a179dbc8c54d809160c01b610b9b565b600660008273ffffffffffffffffffffffffffffffffffffffff1673ffffffffffffffffffffffffffffffffffffffff16815260200190815260200160002060009054906101000a900463ffffffff1663ffffffff164210156105f8576040517f08c379a00000000000000000000000000000000000000000000000000000000081526004016105ef9061155b565b60405180910390fd5b61060c671dc9397455a44c1760c01b610b9b565b610620675690129445c6a5f160c01b610b9b565b7f00000000000000000000000000000000000000000000000000000000000000004261064c91906115aa565b600660008373ffffffffffffffffffffffffffffffffffffffff1673ffffffffffffffffffffffffffffffffffffffff16815260200190815260200160002060006101000a81548163ffffffff021916908363ffffffff1602179055506106bd67fb406dcd1c9c608f60c01b610b9b565b6106d16747208a7a283cf55860c01b610b9b565b6106fb817f0000000000000000000000000000000000000000000000000000000000000000610c25565b61070f67017eced03f44fbb660c01b610b9b565b610723678a5f65e911371c6360c01b610b9b565b8073ffffffffffffffffffffffffffffffffffffffff167fb638240958296a5b145c2f18c8ec62f72a20911efab2d38fb48c76695373761f60405160405180910390a250565b7f000000000000000000000000000000000000000000000000000000000000000081565b60008060008373ffffffffffffffffffffffffffffffffffffffff1673ffffffffffffffffffffffffffffffffffffffff168152602001908152602001600020549050919050565b60066020528060005260406000206000915054906101000a900463ffffffff1681565b610800610b9e565b61080a6000610ca7565b565b6000600560009054906101000a900473ffffffffffffffffffffffffffffffffffffffff16905090565b606060048054610845906114de565b80601f0160208091040260200160405190810160405280929190818152602001828054610871906114de565b80156108be5780601f10610893576101008083540402835291602001916108be565b820191906000526020600020905b8154815290600101906020018083116108a157829003601f168201915b5050505050905090565b6000806108d36109f8565b90506108e0818585610aa7565b600191505092915050565b6000600160008473ffffffffffffffffffffffffffffffffffffffff1673ffffffffffffffffffffffffffffffffffffffff16815260200190815260200160002060008373ffffffffffffffffffffffffffffffffffffffff1673ffffffffffffffffffffffffffffffffffffffff16815260200190815260200160002054905092915050565b61097a610b9e565b600073ffffffffffffffffffffffffffffffffffffffff168173ffffffffffffffffffffffffffffffffffffffff16036109ec5760006040517f1e4fbdf70000000000000000000000000000000000000000000000000000000081526004016109e39190611454565b60405180910390fd5b6109f581610ca7565b50565b600033905090565b610a0d8383836001610d6d565b505050565b6000610a1e84846108eb565b90507fffffffffffffffffffffffffffffffffffffffffffffffffffffffffffffffff811015610aa15781811015610a91578281836040517ffb8f41b2000000000000000000000000000000000000000000000000000000008152600401610a88939291906115de565b60405180910390fd5b610aa084848484036000610d6d565b5b50505050565b600073ffffffffffffffffffffffffffffffffffffffff168373ffffffffffffffffffffffffffffffffffffffff1603610b195760006040517f96c6fd1e000000000000000000000000000000000000000000000000000000008152600401610b109190611454565b60405180910390fd5b600073ffffffffffffffffffffffffffffffffffffffff168273ffffffffffffffffffffffffffffffffffffffff1603610b8b5760006040517fec442f05000000000000000000000000000000000000000000000000000000008152600401610b829190611454565b60405180910390fd5b610b96838383610f44565b505050565b50565b610ba66109f8565b73ffffffffffffffffffffffffffffffffffffffff16610bc461080c565b73ffffffffffffffffffffffffffffffffffffffff1614610c2357610be76109f8565b6040517f118cdaa7000000000000000000000000000000000000000000000000000000008152600401610c1a9190611454565b60405180910390fd5b565b600073ffffffffffffffffffffffffffffffffffffffff168273ffffffffffffffffffffffffffffffffffffffff1603610c975760006040517fec442f05000000000000000000000000000000000000000000000000000000008152600401610c8e9190611454565b60405180910390fd5b610ca360008383610f44565b5050565b6000600560009054906101000a900473ffffffffffffffffffffffffffffffffffffffff16905081600560006101000a81548173ffffffffffffffffffffffffffffffffffffffff021916908373ffffffffffffffffffffffffffffffffffffffff1602179055508173ffffffffffffffffffffffffffffffffffffffff168173ffffffffffffffffffffffffffffffffffffffff167f8be0079c531659141344cd1fd0a4f28419497f9722a3daafe3b4186f6b6457e060405160405180910390a35050565b600073ffffffffffffffffffffffffffffffffffffffff168473ffffffffffffffffffffffffffffffffffffffff1603610ddf5760006040517fe602df05000000000000000000000000000000000000000000000000000000008152600401610dd69190611454565b60405180910390fd5b600073ffffffffffffffffffffffffffffffffffffffff168373ffffffffffffffffffffffffffffffffffffffff1603610e515760006040517f94280d62000000000000000000000000000000000000000000000000000000008152600401610e489190611454565b60405180910390fd5b81600160008673ffffffffffffffffffffffffffffffffffffffff1673ffffffffffffffffffffffffffffffffffffffff16815260200190815260200160002060008573ffffffffffffffffffffffffffffffffffffffff1673ffffffffffffffffffffffffffffffffffffffff168152602001908152602001600020819055508015610f3e578273ffffffffffffffffffffffffffffffffffffffff168473ffffffffffffffffffffffffffffffffffffffff167f8c5be1e5ebec7d5bd14f71427d1e84f3dd0314c0f7b2291e5b200ac8c7c3b92584604051610f359190611339565b60405180910390a35b50505050565b600073ffffffffffffffffffffffffffffffffffffffff168373ffffffffffffffffffffffffffffffffffffffff1603610f96578060026000828254610f8a91906115aa565b92505081905550611069565b60008060008573ffffffffffffffffffffffffffffffffffffffff1673ffffffffffffffffffffffffffffffffffffffff16815260200190815260200160002054905081811015611022578381836040517fe450d38c000000000000000000000000000000000000000000000000000000008152600401611019939291906115de565b60405180910390fd5b8181036000808673ffffffffffffffffffffffffffffffffffffffff1673ffffffffffffffffffffffffffffffffffffffff16815260200190815260200160002081905550505b600073ffffffffffffffffffffffffffffffffffffffff168273ffffffffffffffffffffffffffffffffffffffff16036110b257806002600082825403925050819055506110ff565b806000808473ffffffffffffffffffffffffffffffffffffffff1673ffffffffffffffffffffffffffffffffffffffff168152602001908152602001600020600082825401925050819055505b8173ffffffffffffffffffffffffffffffffffffffff168373ffffffffffffffffffffffffffffffffffffffff167fddf252ad1be2c89b69c2b068fc378daa952ba7f163c4a11628f55a4df523b3ef8360405161115c9190611339565b60405180910390a3505050565b600081519050919050565b600082825260208201905092915050565b60005b838110156111a3578082015181840152602081019050611188565b60008484015250505050565b6000601f19601f8301169050919050565b60006111cb82611169565b6111d58185611174565b93506111e5818560208601611185565b6111ee816111af565b840191505092915050565b6000602082019050818103600083015261121381846111c0565b905092915050565b600080fd5b600073ffffffffffffffffffffffffffffffffffffffff82169050919050565b600061124b82611220565b9050919050565b61125b81611240565b811461126657600080fd5b50565b60008135905061127881611252565b92915050565b6000819050919050565b6112918161127e565b811461129c57600080fd5b50565b6000813590506112ae81611288565b92915050565b600080604083850312156112cb576112ca61121b565b5b60006112d985828601611269565b92505060206112ea8582860161129f565b9150509250929050565b60008115159050919050565b611309816112f4565b82525050565b60006020820190506113246000830184611300565b92915050565b6113338161127e565b82525050565b600060208201905061134e600083018461132a565b92915050565b60008060006060848603121561136d5761136c61121b565b5b600061137b86828701611269565b935050602061138c86828701611269565b925050604061139d8682870161129f565b9150509250925092565b600060ff82169050919050565b6113bd816113a7565b82525050565b60006020820190506113d860008301846113b4565b92915050565b6000602082840312156113f4576113f361121b565b5b600061140284828501611269565b91505092915050565b600063ffffffff82169050919050565b6114248161140b565b82525050565b600060208201905061143f600083018461141b565b92915050565b61144e81611240565b82525050565b60006020820190506114696000830184611445565b92915050565b600080604083850312156114865761148561121b565b5b600061149485828601611269565b92505060206114a585828601611269565b9150509250929050565b7f4e487b7100000000000000000000000000000000000000000000000000000000600052602260045260246000fd5b600060028204905060018216806114f657607f821691505b602082108103611509576115086114af565b5b50919050565b7f574149545f323448000000000000000000000000000000000000000000000000600082015250565b6000611545600883611174565b91506115508261150f565b602082019050919050565b6000602082019050818103600083015261157481611538565b9050919050565b7f4e487b7100000000000000000000000000000000000000000000000000000000600052601160045260246000fd5b60006115b58261127e565b91506115c08361127e565b92508282019050808211156115d8576115d761157b565b5b92915050565b60006060820190506115f36000830186611445565b611600602083018561132a565b61160d604083018461132a565b94935050505056fea2646970667358221220444efabe4ab266fbe5f039db6ae5544857cba71d1463e43924d3c85962b355ca64736f6c63430008180033",
  "linkReferences": {},
  "deployedLinkReferences": {}
}